S0150000444441545F506C6174666F726D2E737265634E
S11300000C94BF0A0C941D190C9427190C94E70A3C
S11300100C94E70A0C94E70A0C94E70A0C94E70A98
S11300200C94E70A0C94E70A0C94E70A0C94E70A88
S11300300C94E70A0C94E70A0C94E70A0C94E70A78
S11300400C9484250C94E70A0C94A5130C94441482
S11300500C94E70A0C94E70A0C94E70A0C94E70A58
S11300600C94E70A0C94E70A6F1C801C711C731C27
S1130070751C771C791C00000000003E5B4F5B3E42
S11300803E6B4F6B3E1C3E7C3E1C183C7E3C181C59
S1130090577D571C1C5E7F5E1C00183C1800FFE750
S11300A0C3E7FF0018241800FFE7DBE7FF30483AF6
S11300B0060E2629792926407F050507407F052558
S11300C03F5A3CE73C5A7F3E1C1C08081C1C3E7FE0
S11300D014227F22145F5F005F5F06097F017F00A7
S11300E06689956A606060606094A2FFA2940804C7
S11300F07E040810207E201008082A1C08081C2AE8
S113010008081E101010100C1E0C1E0C30383E383F
S113011030060E3E0E06000000000000005F0000E6
S11301200007000700147F147F14242A7F2A122357
S11301301308646236495620500008070300001C67
S11301402241000041221C002A1C7F1C2A08083E70
S11301500808008070300008080808080000606083
S11301600020100804023E5149453E00427F4000F1
S113017072494949462141494D331814127F1027C9
S1130180454545393C4A4949314121110907364918
S1130190494936464949291E0000140000004034EC
S11301A000000008142241141414141400412214F1
S11301B00802015909063E415D594E7C1211127C18
S11301C07F494949363E414141227F4141413E7F79
S11301D0494949417F090909013E414151737F0859
S11301E008087F00417F41002040413F017F0814FF
S11301F022417F404040407F021C027F7F04081060
S11302007F3E4141413E7F090909063E4151215E3D
S11302107F09192946264949493203017F01033FD1
S11302204040403F1F2040201F3F4038403F631460
S113023008146303047804036159494D43007F4162
S113024041410204081020004141417F040201029F
S113025004404040404000030708002054547840C4
S11302607F284444383844444428384444287F3858
S11302705454541800087E090218A4A49C787F08DA
S113028004047800447D40002040403D007F102855
S1130290440000417F40007C047804787C08040416
S11302A0783844444438FC1824241818242418FCAE
S11302B07C08040408485454542404043F44243C53
S11302C04040207C1C2040201C3C4030403C4428C2
S11302D01028444C9090907C4464544C440008365C
S11302E041000000770000004136080002010204CA
S11302F0023C2623263C1EA1A161123A4040207AEA
S11303003854545559215555794122545478422131
S11303105554784020545579400C1E527212395568
S11303205555593954545459395554545800004565
S11303307C410002457D420001457C407D12111242
S11303407DF0282528F07C545545002054547C54D5
S11303507C0A097F4932494949323A4444443A3291
S11303604A4848303A4141217A3A42402078009D37
S1130370A0A07D3D4242423D3D4040403D3C24FFE3
S11303802424487E4943662B2FFC2F2BFF0929F692
S113039020C0887E090320545479410000447D41E3
S11303A03048484A32384040227A007A0A0A727D3C
S11303B00D19317D2629292F282629292926304857
S11303C04D4020380808080808080808382F10C8C5
S11303D0ACBA2F102834FA00007B000008142A1449
S11303E02222142A1408AA005500AAAA55AA55AA1A
S11303F0000000FF00101010FF00141414FF001080
S113040010FF00FF1010F010F0141414FC0014146A
S1130410F700FF0000FF00FF1414F404FC14141789
S1130420101F10101F101F1414141F00101010F0B0
S1130430000000001F101010101F10101010F010FA
S1130440000000FF101010101010101010FF10000A
S11304500000FF140000FF00FF00001F1017000041
S1130460FC04F414141710171414F404F40000FF1B
S113047000F714141414141414F700F714141417B4
S11304801410101F101F141414F4141010F010F092
S113049000001F101F0000001F14000000FC1400C7
S11304A000F010F01010FF10FF141414FF141010BB
S11304B0101F00000000F010FFFFFFFFFFF0F0F03E
S11304C0F0F0FFFFFF0000000000FFFF0F0F0F0F11
S11304D00F3844443844FC4A4A4A347E0202060631
S11304E0027E027E0263554941633844443C044021
S11304F07E201E2006027E020299A5E7A5991C2AE9
S1130500492A1C4C7201724C304A4D4D30304878A7
S11305104830BC625A463D3E494949007E010101CA
S11305207E2A2A2A2A2A44445F444440514A4440A9
S113053040444A51400000FF0103E080FF000008EE
S1130540086B6B083612362436060F090F060000B6
S113055018180000001010003040FF0101001F01B6
S1130560011E00191D1712003C3C3C3C0000000019
S1130570005350492042616420426974206F7264C0
S11305806572206F7074696F6E0053504920426128
S113059064206D6F6465206F7074696F6E005350D2
S11305A0492042616420436C6F636B204F7074690F
S11305B06F6E004552524F52212054686973207067
S11305C0696E20697320666F7262696464656E2067
S11305D0666F722043530053545245414D494E4770
S11305E05F53544F50504544002053544F5050458E
S11305F0440053545245414D494E47002020202089
S11306002020202020202035562C522C472C5241CB
S1130610570031332C332E332C415245462C413074
S11306202D41370031322C31312E2E2E332C322CE9
S1130630472C522C52582C54580020202020202083
S1130640342E4E657720436F6D6D616E6473206840
S1130650617665206265656E2061646465642070FE
S11306606C65617365207570646174652074686974
S113067073206C6973740D0A00202020202020331D
S11306802E436F6D6D616E647320617265206361CA
S113069073652073656E7369746976652C2077655C
S11306A0206E65656420746F20636865636B2074D5
S11306B06869730D0A00202020202020322E416C0E
S11306C06C207468726565207479706573206F6638
S11306D02073747265616D2063616E2062652061B0
S11306E0637469766520746F6765746865722061E8
S11306F06E6420646174612077696C6C206265208B
S1130700696E20436F6D6D61205365706172617411
S113071065642076616C7565730D0A000D0A4E6F71
S113072074653A20312E4354524C2B4320666F6C2F
S11307306C6F7765642062792052455455524E207F
S1130740616C736F2073746F70732073747265615E
S11307506D0D0A000968656C703A2053686F772044
S1130760746869732068656C70206D657373616764
S1130770650D0A0009756469733A206469736162DE
S11307806C65205561727420636F6E6E6563746965
S11307906F6E3B2063616E20626520757365207403
S11307A06F206D616B6520612070617373207468C4
S11307B0726F75676820636F6E6E656374696F6EC0
S11307C0206265747765656E20426C7565746F6F21
S11307D0746820616E6420616E6F74686572205560
S11307E0415254206465766963652E0D0A000973CD
S11307F06E6F6F70643A20456E61626C657320742D
S11308006865205458206F66204156522062616307
S11308106B204F4E0D0A0009736E6F6F70653A209E
S113082064697361626C6573205458206F6620415B
S1130830565220616E64206B656570732074686520
S113084020525820656E61626C656420736F207459
S11308506861742077652063616E2072656164202D
S113086064617461206F6620616E6F7468657220C4
S1130870554152542064657669636520636F6E6EDA
S113088065637465640D0A000972657365743A20C2
S11308907265736574732074686520646576696332
S11308A0650D0A00097773706B3A206B65657020DB
S11308B07768697465207370616365206368617229
S11308C06163746572730D0A0009777370723A205C
S11308D064697363617264207768697465207370F6
S11308E061636520636861726163746572730D0A84
S11308F00009636173655F643A2064697361626CC3
S11309006520436173652073656E736974697669E4
S113091074790D0A0009636173655F653A20656E39
S113092061626C6520436173652073656E736974DD
S113093069766974790D0A00096273706163655F91
S1130940643A2064697361626C65204261636B730D
S11309507061636520646574656374696F6E0D0A04
S113096000096273706163655F653A20656E616258
S11309706C65204261636B737061636520646574A8
S1130980656374696F6E0D0A0009617464653A20C9
S113099064697361626C65205465726D696E616C23
S11309A0204543484F0D0A00096174653A20656E7D
S11309B061626C65205465726D696E616C2045439B
S11309C0484F0D0A000973686F773A2053686F77B0
S11309D02070696E2D6F7574206F6E204F4C4544E6
S11309E020446973706C61790D0A0009202020206D
S11309F0202020202020796F752063616E20737081
S1130A0065636966792044454320696620796F757A
S1130A102077616E742E0D0A0009202020202020EA
S1130A20202020207468652073657175656E636588
S1130A30206F6620706172616D65746572732069E0
S1130A4073206E6F7420696D706F7274616E742C94
S1130A50206D6178206E756D626572206F6620620C
S1130A60797465732063616E20626520382C20647C
S1130A70656661756C7420697320484558207479E3
S1130A8070650D0A0009202020202020202020202D
S1130A90666F726D61743A69326372656164202DA8
S1130AA0733C736C6176655F616464723E202D6E85
S1130AB03C6E6F2E206F662062797465733E202D24
S1130AC0723C72656769737465725F616464723ED7
S1130AD0205B2D744845583A4445435D0D0A00098E
S1130AE0693263726561643A2052656164206461AD
S1130AF074612066726F6D207265717565737465BB
S1130B00642049324320736C61766520646576699C
S1130B1063650D0A000920202020202020202020A9
S1130B20796F752063616E207370656369667920DF
S1130B3044454320696620796F752077616E742E71
S1130B400D0A000920202020202020202020746865
S1130B50652073657175656E6365206F66207061CD
S1130B6072616D6574657273206973206E6F742091
S1130B70696D706F7274616E742C206D6178206E73
S1130B80756D626572206F66206279746573206387
S1130B90616E20626520382C2064656661756C7412
S1130BA02069732048455820747970650D0A00093E
S1130BB020202020202020202020666F726D617468
S1130BC03A6932637772697465202D733C736C6182
S1130BD076655F616464723E202D6E3C6E6F2E20DC
S1130BE06F662062797465733E202D723C7265676E
S1130BF069737465725F616464723E202D683C643D
S1130C0061746162797465312C64617461627974B0
S1130C1065322E2E3E205B2D744845583A44454398
S1130C205D0D0A000969326377726974653A205769
S1130C3072697465206461746120746F20726571D7
S1130C407565737465642049324320736C617665FD
S1130C50206465766963650D0A0009202020202040
S1130C602020202020666F726D61743A20693263FF
S1130C7070696E67202D733C736C6176655F616487
S1130C8064723E0D0A000969326370696E673A2026
S1130C90436865636B7320696620612072657175B2
S1130CA065737465642049324320736C61766520F2
S1130CB064657669636520697320726573706F6E0D
S1130CC073697665206F72206E6F740D0A0009696E
S1130CD032637363616E3A205363616E2049324319
S1130CE02062757320666F7220616C6C2064657677
S1130CF0696365730D0A000973747265616D533A13
S1130D002053746F7020616C6C2073747265616D14
S1130D10730D0A000973747265616D50583A20634B
S1130D206F6E74696E756F75736C79205374726528
S1130D30616D207468652056616C7565206F66204E
S1130D40504F525420582C207768657265205820E3
S1130D5063616E20626520422C2043206F72204420
S1130D6020696E204845580D0A0009737472656144
S1130D706D41583A20636F6E74696E756F75736C4C
S1130D80792053747265616D2074686520646174A0
S1130D9061206F6620616E616C6F672050696E2000
S1130DA0580D0A000973747265616D44583A2063E2
S1130DB06F6E74696E756F75736C79205374726598
S1130DC0616D20746865207374617465206F66209A
S1130DD06469676974616C2050696E20580D0A005B
S1130DE009746F67583A20746F67676C65205820E0
S1130DF070696E206469676974616C206F757470C2
S1130E0075740D0A000961726566583A2073657439
S1130E1020616E616C6F67207265666572656E63D2
S1130E20652C2061726566693A696E7465726E61DB
S1130E306C2C2061726566783A65787465726E61AF
S1130E406C2C2061726566763A7663630D0A00093C
S1130E5061676574583A2067657420582070696E1C
S1130E6020616E616C6F672056616C75650D0A00B8
S1130E700970776D665820593A207365742070772D
S1130E806D206672657175656E6379206469766933
S1130E90736F72206F6E20582070696E206F662009
S1130EA056616C756520595B317C387C33327C36F5
S1130EB0347C3132387C3235367C313032345D0D1D
S1130EC00A000970776D765820593A2073657420AA
S1130ED070776D206F6E20582070696E206F6620C9
S1130EE056616C7565205928302D323535290D0A27
S1130EF00009676574583A20676574205820706942
S1130F006E206469676974616C2056616C75650D47
S1130F100A000973657470583A2053657420582088
S1130F2070696E20696E7075742050756C6C2D75C7
S1130F30700D0A000973657469583A20536574206A
S1130F40582070696E20696E7075740D0A000973FB
S1130F5065746C583A2053657420582070696E206B
S1130F604C6F770D0A000973657468583A2053650D
S1130F707420582070696E20486967680D0A00441F
S1130F8044415420506C6174666F726D200D0A5593
S1130F90736167653A0D0A004552524F5228212960
S1130FA0004552524F525F31004552524F525F3208
S1130FB0004461746120526561643A0D0A0045522F
S1130FC0524F52212043616E6E6F742050726F63D2
S1130FD0657373206D6F7265207468616E203820AC
S1130FE0627974657320696E206F6E652073686F13
S1130FF0742E004552524F522120456E61626C6539
S113100020535049206669727374004552524F52FE
S11310105F3200446174612053656E74004552521E
S11310204F52212043616E6E6F742050726F63655E
S11310307373206D6F7265207468616E203820624E
S11310407974657320696E206F6E652073686F74A0
S11310502E004552524F5221204279746520436F2D
S1131060756E7420646F65736E2774206D6174638C
S113107068206E756D626572206F66206279746592
S113108073004552524F522120456E61626C6520B7
S1131090535049206669727374004552524F525F2F
S11310A032005350492044697361626C6564005393
S11310B0504920456E61626C6564004552524F523E
S11310C05F31004261636B737061636520646574B2
S11310D0656374696F6E2044697361626C65640052
S11310E04261636B737061636520646574656374E6
S11310F0696F6E20456E61626C6564004552524FA3
S1131100525F3100436173652053656E736974697E
S1131110766974792044697361626C656400436123
S113112073652053656E73697469766974792045B3
S11311306E61626C65640020446576696365732042
S1131140466F756E642E000D0A5363616E20436F03
S11311506D706C6574652E00446576696365204125
S11311606464726573733A005363616E6E696E678B
S113117020493243206275732E2E2E004465766911
S11311806365204E6F7420526573706F6E64696E70
S11311906720746F2050696E6700446576696365E3
S11311A020526573706F6E64656420746F2050699B
S11311B06E67004552524F525F32004552524F52B1
S11311C05F33004461746120526561643A0D0A0022
S11311D05374617475733A20004552524F52212062
S11311E0446576696365204E6F7420466F756E643E
S11311F02F526573706F64696E67004552524F5287
S1131200212043616E6E6F742072656164206D6F7E
S11312107265207468616E20382062797465732069
S1131220696E206F6E652073686F742E004552528C
S11312304F525F320044617461205772697474655F
S11312406E205375636365737366756C6C790053B4
S113125074617475733A20004552524F52212044F0
S11312606576696365204E6F7420466F756E642FD2
S1131270526573706F64696E67004552524F522114
S1131280204279746520436F756E7420646F6573B2
S11312906E2774206D61746368206E756D6265726B
S11312A0206F66206279746573004552524F525F15
S11312B03200494E434C5544494E472057484954FF
S11312C045205350414345004558434C5544494EED
S11312D047205748495445205350414345005465DD
S11312E0737420537563636573730068656C6C6F06
S11312F0004552524F525F33004552524F525F34B1
S1131300004552524F525F32004552524F525F31A4
S1131310004552524F525F32004552524F525F3194
S1131320004552524F525F320056434300455854D1
S113133045524E414C00494E5445524E414C004199
S11313404E414C4F4720524546004552524F525F42
S1131350310050574D4620004552524F525F3300E2
S11313604552524F525F32004552524F525F310044
S113137050574D20004552524F525F320045525251
S11313804F525F3100414E414C4F4720004552526D
S11313904F525F32004552524F525F31004C4F570B
S11313A00048494748005354415445200047504998
S11313B04F20004552524F525F32004552524F5215
S11313C05F3100544F47474C454420004750494F34
S11313D020004552524F525F32004552524F525FE5
S11313E031004552524F523300434D445F45520041
S11313F0494E50555400505F5550004C4F570048CB
S11314004947480053455420004750494F20004560
S113141052524F525F32004552524F525F310020B8
S113142020504C4154464F524D002020202044442B
S1131430415400444441545F494E495449414C4944
S11314405345440D0A0070776D660070776D760021
S11314507265736574007370695F64697300737097
S1131460695F656E007370695F72656164007370B3
S1131470695F63736C007370695F63736800737092
S1131480695F7772697465007370695F636F6E6614
S11314906967006273706163655F640062737061A1
S11314A063655F6500636173655F640063617365B1
S11314B05F65006932637363616E006932637069EA
S11314C06E670069326372656164006932637772C2
S11314D06974650077737072007564697300736E64
S11314E06F6F706500617464650068656C7000619D
S11314F0746500746F670073747265616D00616771
S113150065740061726566006765740073657400D4
S113151073686F7700746573740068656C6C6F0032
S113152000000000240027002A000000000025001D
S113153028002B00000000002300260029000404DA
S11315400404040404040202020202020303030367
S11315500303010204081020408001020408102043
S1131560010204081020000000070002010000032B
S113157004060000000000000000B015111E112434
S11315801FBECFEFD8E0DEBFCDBF13E0A0E0B1E0D7
S1131590E4E7F5E502C005900D92A83AB107D9F742
S11315A024E0A8EAB3E001C01D92A33FB207E1F72B
S11315B01AE0CFEBDAE004C02197FE010E941A2A58
S11315C0CD3BD107C9F70E9424250C94B82A0C946A
S11315D000002F923F924F925F926F927F928F9270
S11315E09F92AF92BF92CF92DF92EF92FF920F93AE
S11315F01F93CF93DF9300D000D000D0CDB7DEB7D8
S11316002C017E836D836A015901C801FC82EB823F
S11316104801841A950A97FE03C091948194910815
S113162035012D813E81621A730A77FE03C07194DD
S113163061947108681479045CF43A2D2B2D5C01D3
S1131640832F922F3D812E81DE82CD82C32ED22E16
S1131650AD81BE81AA16BB065CF43C2D2D2D6C0118
S1131660832F922F3D812E81BE82AD82A32EB22E76
S113167085012D813E81021B130B1C012C183D0892
S113168037FE03C0319421943108780117FF03C059
S11316903FEFE31AF30AF594E794C816D9062CF041
S11316A08FEF9FEF9A83898304C0A1E0B0E0BA83EF
S11316B0A9832D813E81A216B30624F1D201ED91B6
S11316C0FC910480F581E02D2B813C816814790420
S11316D024F44D815E81B60103C0A6016D817E8133
S11316E0C2010995E218F308F7FE06C029813A8180
S11316F0C20ED31EE00EF11E8D819E8101969E8343
S11317008D83D7CF26960FB6F894DEBF0FBECDBF1C
S1131710DF91CF911F910F91FF90EF90DF90CF90C9
S1131720BF90AF909F908F907F906F905F904F90FD
S11317303F902F9008956F927F928F929F92AF92D5
S1131740BF92CF92DF92EF92FF920F931F93CF93AA
S1131750DF93EC014B015A0169013801E881F981F9
S11317600284F385E02D87010995A501460D571DD7
S113177041505109E881F9810284F385E02D9601F5
S1131780B401CE010995E881F9810084F185E02D49
S11317909301A501B401CE010995C80CD91CB60169
S11317A061507109E881F9810084F185E02D93018C
S11317B0A501CE010995DF91CF911F910F91FF9063
S11317C0EF90DF90CF90BF90AF909F908F907F90DD
S11317D06F900895EF92FF920F931F93240F351F7C
S11317E021503109DC01ED91FC910680F781E02D57
S11317F0780189019B0109951F910F91FF90EF904A
S11318000895EF92FF920F931F93260F371F2150D5
S11318103109DC01ED91FC910680F781E02D78011E
S11318208A0109951F910F91FF90EF9008956F928F
S11318307F928F929F92AF92BF92CF92DF92EF925C
S1131840FF920F931F93CF93DF936C015A014801CA
S1131850EB013B01620E731EC615D70574F4D60165
S1131860ED91FC910084F185E02D87019401A5019F
S1131870BE01C60109952196EFCFDF91CF911F914B
S11318800F91FF90EF90DF90CF90BF90AF909F901B
S11318908F907F906F900895EF92FF920F931F9314
S11318A0DC011A960D911C911B9718962D913C9171
S11318B01997ED91FC910684F785E02D7B0140E0BA
S11318C050E060E070E009951F910F91FF90EF9058
S11318D008950895FC011382128287E193E09183B5
S11318E080837583648357834683718760875387B6
S11318F04287158A158614861786168681E0848B9E
S11319002FEF3FEF338B228B318B208B868B089507
S11319102F923F924F925F926F927F928F929F92FB
S1131920AF92BF92CF92DF92EF92FF920F931F93E9
S1131930CF93DF93CDB7DEB72D970FB6F894DEBF04
S11319400FBECDBFDC011896ED91FC9119976E176F
S11319507F070CF09BC01A96ED91FC911B974E17D4
S11319605F070CF093C08C2C912CFB01B6E0CB9E4E
S1131970E00DF11D11241E161F060CF087C0F401A2
S113198033E0EE0FFF1F3A95E1F7E40FF51F1E1643
S11319901F060CF07BC0CF82FE82ED821C830B837A
S11319A01A015C0145E0249F900111247D876C8716
S11319B03B011A82C901861B970B99878887D1013D
S11319C01896BB87AA87BA81B53049F0E885F985AE
S11319D0E60DF71DEA58FF4F2491298301C01982AF
S11319E021016101398130FF12C0D501ED91FC91D3
S11319F0BF81B13031F40480F581E02D2B813C812D
S1131A0017C00684F785E02DEB80FC801BC02B817A
S1131A103C814D815E8124173507D9F0D501ED91C4
S1131A20FC91BF81B13049F40480F581E02D9A0125
S1131A30A201B301C50109950CC00684F785E02D08
S1131A40ED80FE8084019401A6016C857D85C5012D
S1131A5009952981269529833FEF431A530AC80C17
S1131A60D91C4A855B854416550609F0BBCF5A81BB
S1131A705F5F5A838FEF681A780AAC85BD85A80D1D
S1131A80B91DBD87AC87563009F09DCF2D960FB692
S1131A90F894DEBF0FBECDBFDF91CF911F910F91A0
S1131AA0FF90EF90DF90CF90BF90AF909F908F907A
S1131AB07F906F905F904F903F902F900895CF92BA
S1131AC0EF92FF920F931F93CF93DF93EC016A3051
S1131AD059F42C898E859F8538E0239F800D911DB4
S1131AE011249F878E8735C06D30A9F1262FEA888F
S1131AF0FB88088919894E855F856C857D85CC882E
S1131B000E94880C4C89242F30E08C859D8556E0FA
S1131B10459F800D911D11249D878C874E894423F8
S1131B20D1F04AEF4203B001439F700D1124488560
S1131B305985460F571F481759076CF483E0220F45
S1131B40331F8A95E1F78E859F85280F391F3F87BC
S1131B502E871D861C8681E090E0DF91CF911F9136
S1131B600F91FF90EF90CF900895FC0175876487E3
S1131B70578746870895611101C061E0FC01648BB9
S1131B800895FC01738B628B718B608B0895FC014B
S1131B90668B0895FC0185890895FC0180859185F3
S1131BA00895FC018285938508950F931F93CF9325
S1131BB0DF93DC01FB0155968C915597823089F0B7
S1131BC0833021F1813009F0E7C014968D919C9106
S1131BD01597BC01641B750BAB0141505109BF0142
S1131BE01DC014966D917C911597CB018E1B9F0B94
S1131BF0FC0116968D919C911797BC01641B750B83
S1131C00AB0141505109E21BF30BC6C016966D910E
S1131C107C9117976E1B7F0B621B730B57FD1BC1C7
S1131C2014968D919C911597481759070CF013C180
S1131C3077FF04C0260F371F60E070E016968D9181
S1131C409C911797FB01E20FF31F8E179F071CF45B
S1131C509C01261B370B121613060CF0FCC0A22F96
S1131C60862F86958695869590E8899F400D511D0F
S1131C701124FA01E05FFE4F6770A9F198E0961B0A
S1131C80492F50E0EA01C85FDE4F8881291790F49C
S1131C90421B51092FEF30E002C0359527954A9534
S1131CA0E2F782230130110541F068F0023011059A
S1131CB089F0D1C00130110519F42081822B0CC0A8
S1131CC00130110520F480952081822305C0023063
S1131CD0110531F4208182278083A91708F4BBC041
S1131CE0A91BE058FF4FA83048F10230110559F400
S1131CF0EF018A2F988190959883C058DF4F8850C0
S1131D008830C0F733C081E00130110509F080E06C
S1131D108195EF019A2F8883C058DF4F98509830EF
S1131D20D0F788EF8A0F86958695869560E8869F1A
S1131D30E00DF11D1124E058FF4FA770AA2309F408
S1131D408AC0B0E0A050BF4F8C910130110531F032
S1131D5040F00230110509F07EC01BC09081892B30
S1131D6003C0809590818923808375C088EF8A0F92
S1131D7086958695869570E8879FE00DF11D112460
S1131D80E058FF4FA77009F466C0B0E0A050BF4F01
S1131D908C9190818927E8CF57FD5DC016968D916F
S1131DA09C911797481759070CF055C0F7FF04C0CA
S1131DB02E0F3F1FE0E0F0E014968D919C91159753
S1131DC0BF01620F731F861797071CF49C012E1B1B
S1131DD03F0B121613060CF03EC0CA0157FD0796BE
S1131DE063E0959587956A95E1F79695982F8827EE
S1131DF097958795E80FF91FE05FFE4F47705527C9
S1131E0081E090E001C0880F4A95EAF7482F01303D
S1131E10110539F078F002301105E9F42E0F3F1F57
S1131E2013C02E0F3F1FE217F307A9F08081842B04
S1131E308193F9CF80952E0F3F1FE217F30759F0D6
S1131E40908198239193F9CFE217F30721F08081D1
S1131E5084278193F9CFDF91CF911F910F9108953A
S1131E600F931F93CF93DF93DC0155968C91559775
S1131E70823071F0833009F1813009F08CC01496FE
S1131E80ED91FC911597E41BF50BE21BF30B20C0BD
S1131E901496ED91FC911597CF01861B970BBC010D
S1131EA0615071091696ED91FC911797CF01841B2F
S1131EB0950BAC01421B530B6EC01696ED91FC9131
S1131EC01797CF01861B970BBC0161507109FA016A
S1131ED077FD1BC116968D919C911797681779070A
S1131EE00CF013C1F7FF04C02E0F3F1FE0E0F0E039
S1131EF014968D919C911597AF01420F531F84172F
S1131F0095071CF49C012E1B3F0B121613060CF0B4
S1131F10FCC0CB0177FD079643E0959587954A95DC
S1131F20E1F79695982F882797958795E80FF91FDD
S1131F30E05FFE4F6770772781E090E001C0880F73
S1131F406A95EAF7482F0130110541F088F0023014
S1131F50110509F0DAC02E0F3F1F15C02E0F3F1FC9
S1131F60E217F30709F4D1C08081842B8193F8CF61
S1131F7080952E0F3F1FE217F30709F4C6C0908126
S1131F8098239193F8CFE217F30709F4BEC0808138
S1131F9084278193F8CF77FDB8C014968D919C91D6
S1131FA01597681779070CF0B0C057FF04C0240FC9
S1131FB0351F40E050E016968D919C911797FA01D9
S1131FC0E20FF31F8E179F071CF49C01241B350B93
S1131FD0121613060CF099C0A22F842F86958695AD
S1131FE0869590E8899F600D711D1124FB01E05FC7
S1131FF0FE4F4770A9F198E0941B492F50E0EA0185
S1132000C85FDE4F8881291790F4421B51092FEFD6
S113201030E002C0359527954A95E2F782230130D6
S1132020110541F068F00230110589F06EC00130ED
S1132030110519F42081822B0CC00130110520F404
S113204080952081822305C00230110531F420815E
S113205082278083A91708F458C0A91BE058FF4FB2
S1132060A83048F10230110559F4EF018A2F988104
S113207090959883C058DF4F88508830C0F730C09F
S113208081E00130110509F080E08195EF019A2F7C
S11320908883C058DF4F98509830D0F788EF8A0F64
S11320A086958695869590E8899FE00DF11D11240B
S11320B0E058FF4FA770AA2341F1B0E0A050BF4FF2
S11320C08C910130110529F038F002301105E9F442
S11320D019C09081892B18C080959081892314C0E0
S11320E088EF8A0F86958695869590E8899FE00DFE
S11320F0F11D1124E058FF4FA77039F0B0E0A05053
S1132100BF4F8C91908189278083DF91CF911F915C
S11321100F910895CF92DF92EF92FF920F931F9346
S1132120CF93DF937C018B01EA01690177FDA0C0A5
S11321300E94CD0D081719070CF09AC0D7FD98C05E
S1132140C7010E94D10DC817D9070CF091C0C7016F
S11321500E94CA0D823009F07FC0F7018481958105
S11321609C01201B310B8901015011098681978143
S1132170FC01EC1BFD0BEF0121970BC0813049F4EE
S1132180F701848195818C1B9D0BE8018C01015022
S11321901109F1E0CF16D10431F010F132E0C31689
S11321A0D104E1F165C0FE01D7FD379643E0F59512
S11321B0E7954A95E1F7F695FE2FEE27F795E79513
S11321C00E0F1F1FF801E05FFE4FC770DD2781E08F
S11321D090E001C0880FCA95EAF79081892B3AC034
S11321E0FE01D7FD379623E0F595E7952A95E1F7AB
S11321F0F695FE2FEE27F795E7950E0F1F1FF801B2
S1132200E05FFE4FC770DD2781E090E001C0880FDA
S1132210CA95EAF78095908189231CC0FE01D7FDF9
S1132220379683E0F595E7958A95E1F7F695FE2FC5
S1132230EE27F795E7950E0F1F1FF801E05FFE4F9D
S1132240C770DD2781E090E001C0880FCA95EAF7E6
S11322509081892780830CC0833009F08FCFF701E8
S113226086819781801B910B8E01EC01219791CF80
S1132270DF91CF911F910F91FF90EF90DF90CF905E
S11322800895CF93DF93EC0140E250E060E870E002
S11322900E946A0C8FE293E0998388838FEF898F81
S11322A08D8F8B8F8A8FDF91CF910895CF93DF939A
S11322B01F92CDB7DEB7698321E0AE014F5F5F4F58
S11322C060E0FC0187890E9402170F90DF91CF9193
S11322D008951F93CF93DF93EC01162F688F4F8BD4
S11322E060E87AE186E090E00E94E7156EEACE01AC
S11322F00E94561165EDCE010E94561160E8CE0190
S11323000E94561168EACE010E9456116FE1CE0177
S11323100E94561163EDCE010E94561160E0CE0179
S11323200E94561160E4CE010E9456116DE8CE0160
S11323300E945611113011F460E101C064E1CE0134
S11323400E94561160E2CE010E94561160E0CE0157
S11323500E94561161EACE010E94561168ECCE012A
S11323600E9456116AEDCE010E94561162E0CE0120
S11323700E94561161E8CE010E9456116FE8CE0109
S11323800E94561169EDCE010E945611113011F4CC
S113239062E201C061EFCE010E9456116BEDCE01E5
S11323A00E94561160E4CE010E94561164EACE01E7
S11323B00E94561166EACE010E9456116FEACE01C0
S11323C0DF91CF911F910C945611662311F067EAA7
S11323D001C066EA0C9456111F93CF93DF93EC016E
S11323E0611105C0888D813021F01FEC03C010E01D
S11323F001C01FE961E8CE010E945611612FCE0190
S1132400DF91CF911F910C945611FF920F931F935C
S1132410CF93DF93EC0161E20E94561160E0CE019C
S11324200E9456116FE7CE010E94561162E2CE015E
S11324300E94561160E0CE010E94561163E0CE0165
S11324400E945611F090B8008CE08093B80000E12F
S113245011E020E1A80160E48F890E940217005F67
S11324601F4F83E000311807A1F7F092B800DF9105
S1132470CF911F910F91FF90089580E092E0E0E1E9
S1132480F1E0DF019C011D9221503040E1F70895F5
S1132490FC01683018F48BE290E00FC088EF860FDF
S11324A0863030F425E230E031832083828308953E
S11324B06E50663028F488E290E0918380836283D2
S11324C00895DC01ED91FC911197429121E030E0F7
S11324D0C90112960C9002C0880F991F0A94E2F762
S11324E0842B80830895DC01ED91FC911197408148
S11324F021E030E012960C9002C0220F331F0A94A0
S1132500E2F7242B20830C946112DC01ED91FC9101
S11325101197408121E030E012960C9002C0220F06
S1132520331F0A94E2F72095242320830C9461122C
S1132530CF93DF93EC010E946112E881F98120813D
S113254081E090E00A8002C0880F991F0A94E2F7A4
S113255082278083DF91CF910895FC01A081B1810E
S11325609E9121E030E0A901028002C0440F551F72
S11325700A94E2F7842F809589238C93A081B181FA
S11325808C91028002C0220F331F0A94E2F7209537
S113259028232C930895FC01A081B1819E9121E010
S11325A030E0A901028002C0440F551F0A94E2F7EB
S11325B0842F809589238C93A081B1818C91028092
S11325C002C0220F331F0A94E2F7282B2C9308959C
S11325D0DC01ED91FC9111973297208130E0F901F3
S11325E012960C9002C0F595E7950A94E2F7CF0194
S11325F0817008950C944812FC0124853585F901F5
S1132600E05CFF4F80819181329620813181821B71
S1132610930B8F7399270895DC011C96ED91FC911F
S11326201D97DF01A05CBF4F2D913C91119712962D
S11326308D919C9111972817390739F08D919C91B0
S1132640E80FF91F808190E008958FEF9FEF0895C0
S1132650FC01A485B585FD01E05CFF4F208131813B
S11326603296808191812817390779F08081918190
S1132670A80FB91F8C91208131812F5F3F4F2F7399
S113268033273183208390E008958FEF9FEF0895DF
S1132690FC0186859785FC01E05CFF4FDC01AE5BA5
S11326A0BF4F408151812D913C911197421753079F
S11326B0C1F708950F931F93CF93DF93DC01929694
S11326C08C9192978130C9F11E96ED91FC911F97E0
S11326D08F01005C1F4FE801288139812F5F3F4F34
S11326E02F733327AF014E5B5F4FEA0188819981D5
S11326F082179307D1F3E80148815981E40FF51F4C
S113270060831E96ED91FC911F97E05CFF4F31832F
S113271020835696ED91FC915797408121E030E05B
S1132720C9015D960C9002C0880F991F0A94E2F7C4
S1132730842B808381E090E002C080E090E0DF9110
S1132740CF911F910F91089508951F920F920FB684
S11327500F9211242F933F934F935F936F937F9323
S11327608F939F93AF93BF93CF93EF93FF93C091B6
S1132770C6008091C803882399F0CD3059F46DE0E8
S113278088EA93E00E945A136AE088EA93E00E9480
S11327905A1308C06C2F88EA93E00E945A1306C0AB
S11327A0CD3021F481E08093C7030DC0C03229F4F9
S11327B08091C903882339F04CC0CF3721F480912C
S11327C07704811124C08091510490915204209186
S11327D053043091540401968F73992728173907AD
S11327E061F0E0915104F0915204EF5EFB4FC0831D
S11327F090935204809351042CC08091CB03909108
S1132800CC0301969093CC038093CB0322C0809198
S1132810CB039091CC03009711F00197F3CF209153
S11328205104309152048091530490915404281718
S1132830390779F08091510490915204892B19F44D
S11328408FE390E0D5CF8091510490915204019789
S1132850CFCFFF91EF91CF91BF91AF919F918F9186
S11328607F916F915F914F913F912F910F900FBE88
S11328700F901F90189588EA93E00E94FC12892B10
S113288011F00C94A41308951F920F920FB60F9297
S113289011242F933F938F939F93EF93FF93209152
S11328A00D0430910E0480910F04909110042817A8
S11328B0390731F48091C1008F7D8093C10014C029
S11328C0E0910F04F0911004E353FC4F20818091B8
S11328D00F049091100401968F739927909310041C
S11328E080930F042093C600FF91EF919F918F91E5
S11328F03F912F910F900FBE0F901F901895CF937B
S1132900DF93FC0186859785DC01A05CBF4FEC0159
S1132910CE5BDF4F4D915C9111972881398142172D
S11329205307C1F7A689B7893C9181E090E0AC01D7
S1132930028C02C0440F551F0A94E2F7242F2095FD
S113294023232C93A689B7893C91AC01038C02C044
S1132950440F551F0A94E2F7242F209523232C9328
S1132960A689B7893C91AC01048C02C0440F551F61
S11329700A94E2F7242F209523232C93A689B78960
S11329802C91058C02C0880F991F0A94E2F7809558
S113299082238C9384859585FC01EE5BFF4F208117
S11329A03181329731832083DF91CF910895FC01E7
S11329B0878D882311F0178E81E0089521E0FC01B2
S11329C020A30895FC0110A20895FC0111A208950A
S11329D021E0FC0121A30895CF93DF93EC01E8816A
S11329E0F9810284F385E02D0995EE89FF89308110
S11329F081E090E0AC010B8C02C0440F551F0A9497
S1132A00E2F7242F209523232083EE89FF89208158
S1132A100D8C02C0880F991F0A94E2F780958223D7
S1132A20808381E08AA3DF91CF910895FC0112A2F3
S1132A30A689B7894C9121E030E0C901038C02C01A
S1132A40880F991F0A94E2F7842B8C930895CF92F0
S1132A50DF92EF92FF92CF93DF93EC016A017B0147
S1132A6019A218A20E941615C11481EED806E10419
S1132A70F10409F1EC89FD8981E090E00E8C02C03B
S1132A80880F991F0A94E2F7808360E079E08DE370
S1132A9090E0A70196010E94F829DA01C901019783
S1132AA0A109B109B695A795979587959C0121151C
S1132AB080E13807A8F0EC89FD89108260E874E8A9
S1132AC08EE190E0A70196010E94F829DA01C9017C
S1132AD00197A109B109B695A795979587959C018A
S1132AE0E889F9893083EA89FB892083EE89FF89A3
S1132AF0408181E090E09C010A8C02C0220F331FC8
S1132B000A94E2F7242B2083EE89FF8940819C01FB
S1132B100B8C02C0220F331F0A94E2F7242B20836C
S1132B20EE89FF8940819C010C8C02C0220F331F67
S1132B300A94E2F7242B2083EE89FF8920810D8CEF
S1132B4002C0880F991F0A94E2F78095822380833C
S1132B501F8EDF91CF91FF90EF90DF90CF9008957B
S1132B60E8EAF3E01382128288EE93E0A0E0B0E09A
S1132B7084839583A683B78387E493E091838083DA
S1132B8081E194E0958784878DEC93E0978786872D
S1132B9085EC90E0918B808B84EC90E0938B828B1E
S1132BA080EC90E0958B848B81EC90E0978B868B06
S1132BB086EC90E0918F808F84E0828F83E0838F16
S1132BC087E0848F85E0858F81E0868F08959B015F
S1132BD0AC0160E074E284EF90E00E94F829DA012D
S1132BE0C9014097A109B109B695A795979587950D
S1132BF08F3F910509F040F41092B9008093B8001A
S1132C0024E02093BC00089580E090E008950F93A1
S1132C101F9384EA8093BC000E94CC2560935504E2
S1132C207093560480935704909358048091BC0089
S1132C3087FD1EC00E94CC250091550410915604B6
S1132C402091570430915804AB01BC01401B510B37
S1132C50620B730B8091100390911103A0E0B0E01C
S1132C6084179507A607B70708F782E090E008C025
S1132C702091B900287F81E090E0283009F080E0BD
S1132C801F910F9108950F931F9384EA8093BC00C2
S1132C900E94CC2560935504709356048093570486
S1132CA0909358048091BC0087FD1EC00E94CC25DF
S1132CB00091550410915604209157043091580402
S1132CC0AB01BC01401B510B620B730B80911003D1
S1132CD090911103A0E0B0E084179507A607B70709
S1132CE008F782E090E008C02091B900287F81E0D5
S1132CF090E0203109F080E01F910F9108950F9327
S1132D001F938093BB009091BC0093FDFACF84E89D
S1132D108093BC000E94CC256093550470935604A4
S1132D2080935704909358048091BC0087FD1DC084
S1132D300E94CC250091550410915604209157040B
S1132D4030915804AB01BC01401B510B620B730B57
S1132D508091100390911103A0E0B0E084179507CF
S1132D60A607B70708F782E003C08091B900887FFF
S1132D701F910F9108950F931F93CF93DF93EB014E
S1132D80882311F084E801C084EC8093BC000E9485
S1132D90CC25609355047093560480935704909304
S1132DA058048091BC0087FD1DC00E94CC25009171
S1132DB05504109156042091570430915804AB01E6
S1132DC0BC01401B510B620B730B8091100390915B
S1132DD01103A0E0B0E084179507A607B70708F72A
S1132DE082E004C08091BB00888381E0DF91CF91B1
S1132DF01F910F910895880F81600C947F16880F9E
S1132E000C947F16FF920F931F93CF93DF93D82FC9
S1132E10C62FF42E052F122F0E9407168D2F0E9405
S1132E20FF168C2F0E947F16CF2DD02FCE01810F3D
S1132E30911D8C01C017D10721F089910E947F1642
S1132E40F9CF84E98093BC0081E0DF91CF911F9199
S1132E500F91FF900895CF92DF92EF92FF920F931C
S1132E601F93CF93DF93C82FD62F8A01E22E0E949F
S1132E7007168C2F0E94FF168D2F0E947F160E942A
S1132E8043168C2F0E94FB16E801F12C00E010E0A1
S1132E90670181E0C81AD1080E151F0569F0BE014B
S1132EA0C016D10611F080E001C081E00E94BB167B
S1132EB00F5F1F4F2196F0CF84E98093BC0081E01F
S1132EC0DF91CF911F910F91FF90EF90DF90CF9002
S1132ED00895CF93C82F0E9407168C2F0E94FF16C7
S1132EE094E99093BC0091E0883109F090E0892F37
S1132EF0CF910895CF93DF9380917C04811109C011
S1132F0080917A04811105C080917904882309F4A1
S1132F1018C18FEB94E00E943D1240E050E060E065
S1132F2070E08FEB94E00E94B50D61E070E08FEBF0
S1132F3094E00E94C10D62E08FEB94E00E94BB0D0F
S1132F4080917A04882309F444C080917B040E9410
S1132F508627C82F4AE050E0682F88EA93E00E9451
S1132F60302980917C04811104C0809179048823E4
S1132F7031F06CE288EA93E00E94272806C063E5FA
S1132F8073E088EA93E00E94D22940E050E060E0D8
S1132F9070E08FEB94E00E94B50D64E48FEB94E055
S1132FA00E9427284AE050E060917B048FEB94E074
S1132FB00E94302940E150E060E070E08FEB94E043
S1132FC00E94B50D4AE050E06C2F8FEB94E00E9414
S1132FD0302980917C04882309F443C080917D04C6
S1132FE00E947126EC014AE050E0BC0188EA93E0BB
S1132FF00E94022980917904882331F06CE288EAE6
S113300093E00E94272806C063E573E088EA93E012
S11330100E94D22940E050E060E370E08FEB94E03E
S11330200E94B50D61E48FEB94E00E942728609123
S11330307D0470E06E5071094AE050E08FEB94E03B
S11330400E94A02940E150E064E270E08FEB94E03C
S11330500E94B50D4AE050E0BE018FEB94E00E945F
S11330600229809179048130F9F463B140E150E0A0
S113307088EA93E00E94422940E050E060E670E074
S11330808FEB94E00E94B50D66E573E08FEB94E05E
S11330900E94D22940E150E060E670E08FEB94E0BA
S11330A00E94B50D63B141C08230F9F466B140E1CC
S11330B050E088EA93E00E94422940E050E060E654
S11330C070E08FEB94E00E94B50D69E573E08FEB3F
S11330D094E00E94D22940E150E060E670E08FEB7A
S11330E094E00E94B50D66B120C0833021F569B12A
S11330F040E150E088EA93E00E94422940E050E039
S113310060E670E08FEB94E00E94B50D6CE573E02F
S11331108FEB94E00E94D22940E150E060E670E039
S11331208FEB94E00E94B50D69B140E150E08FEB64
S113313094E00E9430298FEB94E0DF91CF910C94BE
S11331400512DF91CF9108951F93CF93DF9300D0A1
S113315000D000D0CDB7DEB7182F62E1CE010496BF
S11331600E94FA1263E1CE0101960E94FA12CE0186
S11331700496112339F00E94CB12CE0101960E94CD
S1133180CB1206C00E94AD12CE0104960E94AD126D
S113319026960FB6F894DEBF0FBECDBFDF91CF9158
S11331A01F9108950E94332640E051EE60E070E0E4
S11331B088EA93E00E94271563E374E188EA93E0C8
S11331C00E94042881E00E94A41821E04CE362E0FC
S11331D08FEB94E00E94691161E08FEB94E00E9410
S11331E0EC118FEB94E00E943D1240E050E060E06F
S11331F070E08FEB94E00E94B50D61E070E08FEB1E
S113320094E00E94C10D61E08FEB94E00E94C70D31
S113321062E08FEB94E00E94BB0D6AE274E18FEBF5
S113322094E00E944F286FE174E18FEB94E00E94D8
S11332304F288FEB94E00C9405121F920F920FB657
S11332400F9211240F900FBE0F901F9018951F928C
S11332500F920FB60F9211240F900FBE0F901F9074
S113326018956FE573E088EA93E00C94D5298330D0
S113327059F09BEF980F923038F097EF980F81E058
S1133280933018F080E0089581E00895A89504B67D
S113329003FE03C081E08093590484B7877F84BF11
S11332A08091600088618093600080E88093600072
S11332B00895F894E0E6F0E080818861808388E8EE
S11332C080832FEF80E792E0215080409040E1F727
S11332D000C0000008956FE77FE088EA93E00E9451
S11332E0042866E67FE088EA93E00E9404286EE4FE
S11332F07FE088EA93E00E94042864E37FE088EAA0
S113330093E00E94042862E17FE088EA93E00E944F
S1133310042861EF7EE088EA93E00E94042862ECCE
S11333207EE088EA93E00E94042860E77EE088EA71
S113333093E00E9404286FE47EE088EA93E00E9410
S1133340042865E07EE088EA93E00E94042860EEA9
S11333507DE088EA93E00E94042864EA7DE088EA3C
S113336093E00E9404286AE67DE088EA93E00E94E4
S1133370042864E17DE088EA93E00E94042867EF72
S11333807CE088EA93E00E9404286EEC7CE088EA02
S113339093E00E94042866E87CE088EA93E00E94B7
S11333A004286AE57CE088EA93E00E94042864E249
S11333B07CE088EA93E00E9404286FEA7BE088EAD4
S11333C093E00E94042863E47BE088EA93E00E948F
S11333D0042865E17BE088EA93E00E9404286FED0D
S11333E07AE088EA93E00E94042865E87AE088EAB3
S11333F093E00E94042869E17AE088EA93E00E945D
S113340004286BEE79E088EA93E00E94042865ECD6
S113341079E088EA93E00E94042868EA79E088EA7F
S113342093E00E94042869E879E088EA93E00E9426
S1133430042861E679E088EA93E00E94042868E3BE
S113344079E088EA93E00E94042865E179E088EA5B
S113345093E00E94042861EF78E088EA93E00E94F8
S1133460042869EC78E088EA93E00E94042864EA7E
S113347078E088EA93E00E94042868E878E088EA23
S113348093E00E94042867E178E088EA93E00E94D0
S113349004286EEE77E088EA93E00E94042864E74B
S11334A077E088EA93E00E94042864E577E088EAFC
S11334B093E00E9404286CE177E088EA93E00E949C
S11334C0042866EB76E088EA93E00E94042869E722
S11334D076E088EA93E00E9404286AE376E088EACA
S11334E093E00C9404288FEB94E00E943D1240E09A
S11334F050E060E070E08FEB94E00E94B50D61E075
S11335008FEB94E00E94BB0D64E276E08FEB94E0D5
S11335100E944F2862E176E08FEB94E00E944F28EE
S11335206CEF75E08FEB94E00E9404288FEB94E03D
S11335300C9405121092790410927A0410927C046F
S11335408FEB94E00E943D1240E050E060E070E0B8
S11335508FEB94E00E94B50D62E08FEB94E00E9443
S1133560BB0D61E070E08FEB94E00E94C10D62EF4F
S113357075E08FEB94E00E944F2869EE75E08FEBC5
S113358094E00E9404288FEB94E00E94051267EDFA
S113359075E088EA93E00C944F28FC01403109F06F
S11335A044C0208180ED820F8A3020F430E0205323
S11335B0310908C08FE9820F863008F07DC030E001
S11335C02755310941814D3209F474C0842F8F7D10
S11335D009F470C0461709F46DC080ED840F8A3079
S11335E048F494E0220F331F9A95E1F750E04053DA
S11335F051090DC08FE9840F863008F05DC084E066
S1133600220F331F8A95E1F750E047555109240FE3
S1133610351F82818D3209F44DC0982F9F7D09F4A6
S113362049C0681709F446C047C04A3009F044C08D
S1133630808190ED980F9A3008F03EC090E0C097DA
S113364051815D32D9F1252F2F7DC1F16517B1F17B
S113365020ED250F2A3080F5489F9001499F300DB9
S11336601124852F90E0C097820F931F22812D3261
S113367029F1322F3F7D11F1621701F130ED320F44
S11336803A30D0F43AE0389FA001399F500D11240C
S1133690822F90E0C097840F951F23812D3229F04B
S11336A0322F3F7D11F0621307C08F3F910531F037
S11336B02CF002C0C90108958FEF9FEF0895EF9297
S11336C0FF920F931F93CF93DF938C01E62ED42F99
S11336D0F22E6CE20E94CD1AF11003C080935E04B6
S11336E005C021E0F21233C080936904C0E0019662
S11336F081F1CE1571F1D03141F4F8018F0181913E
S11337008C3261F08111FACF09C0DA3049F4F80142
S11337108F0181918C3211F08111FACF0F5F1F4F0D
S1133720CF5F4D2F6CE2C8010E94CD1AF11006C084
S1133730EC2FF0E0E65AFB4F8483D9CF21E0F2125C
S113374006C0EC2FF0E0E959FB4F8283D0CF80E034
S113375001C08C2FDF91CF911F910F91FF90EF90BB
S11337600895FF920F931F93CF93DF938C01F62E4E
S113377062E673E00E94962A0097B9F0EC01229663
S113378043E050E065E673E0CE010E94792A892B7C
S113379061F043E050E069E673E0CE010E94792ACB
S11337A0892B09F0E0C0DAE001C0D0E1D0937104C4
S11337B0F11027C06DE673E0C80109960E94962AAD
S11337C0009709F4D0C04D2F6DE202960E94CD1AE5
S11337D08F3F2FEF920709F4C6C08093670460E718
S11337E073E0C80108960E94962A009709F4BBC0AA
S11337F021E04D2F68E002960E945F1B80936804CD
S1133800B6C081E0F81216C06DE673E0C8010896F0
S11338100E94962A009709F4A6C04D2F6DE20296E5
S11338200E94CD1A8F3FEFEF9E0709F49CC080934E
S113383067049DC0F2E0FF129AC0F09273048AE01C
S11338408093720481E08093750410927404109242
S11338507604065F1F4F63E773E0C8010E94962A4F
S11338600097F1F04D2F6DE202960E94CD1A8F3F22
S11338702FEF920709F477C035EF380F333050F04B
S11338803EEE380F323030F0823020F080937204F4
S1133890C1E007C08AE08093720463EB75E05FC007
S11338A0C0E066E773E0C8010E94962A009749F1D8
S11338B04D2F6DE202960E94CD1A8F3FEFEF9E07C7
S11338C009F451C080937304482F50E0FA013197F2
S11338D0E730F10590F4EC5CFF4F0C941A2A84E075
S11338E009C085E007C081E005C086E003C082E02E
S11338F001C083E08093760403C06EE975E02FC0B5
S1133900C1E069E773E0C8010E94962A0097A9F014
S11339104D2F6DE202960E94CD1A8F3FFFEF9F0755
S113392011F1843028F0109274046AE875E017C02D
S1133930880F880F80937404C1E06CE773E0C801BA
S11339400E94962A009789F0FC0182818D3679F0D5
S11339508C3619F4109275040AC061E775E088EAA0
S113396093E00E944F2880E003C08C2F01C081E0C7
S1133970DF91CF911F910F91FF900895FF920F93C4
S11339801F93CF93DF93EC01F62E62E673E00E945F
S1133990962A0097B9F08C010E5F1F4F43E050E068
S11339A065E673E0C8010E94792A892B59F043E047
S11339B050E069E673E0C8010E94792A892B21F05E
S11339C080E0A9C010E101C01AE010936604F11070
S11339D048C028966FE773E0CE010E94962A0097AC
S11339E079F3412F6DE202960E94CD1A8F3F2FEF9B
S11339F0920731F380935A0462E873E0CE010E9487
S1133A00962A0097E9F2412F6DE202960E94CD1AA0
S1133A108F3F2FEF9207A1F280935B046DE673E072
S1133A20CE010E94962A009759F2412F6DE2029628
S1133A300E94CD1A8F3F2FEF920711F280935C04FE
S1133A4060E773E0CE010E94962A009709F4B8CF8C
S1133A5020E0412F68E002960E945F1B80935D0482
S1133A6059C081E0F8123EC027966FE773E0CE019B
S1133A700E94962A009709F4A3CF412F6DE2029683
S1133A800E94CD1A8F3F2FEF920709F499CF8093AC
S1133A905A0462E873E0CE010E94962A009709F462
S1133AA08FCF412F6DE202960E94CD1A8F3F2FEFE8
S1133AB0920709F485CF80935B046DE673E0CE0131
S1133AC00E94962A009709F47BCF412F6DE202965B
S1133AD00E94CD1A8F3F2FEF920709F471CF809384
S1133AE05C0418C082E0F8126BCF6FE773E0CE017C
S1133AF007960E94962A009709F462CF412F6DE23F
S1133B0002960E94CD1A8F3F2FEF920709F458CFE7
S1133B1080935A0481E0DF91CF911F910F91FF9020
S1133B2008959C012550310922303105C0F12450FB
S1133B3031092230310508F451C0877F039769F5B4
S1133B4060347105D9F05CF468307105E9F06032D5
S1133B50710591F06130710501F581E016C06115C0
S1133B6081E0780769F0611584E0780759F06038DE
S1133B70710599F485E009C083E007C084E005C0BD
S1133B8086E003C087E001C082E09091B100987F95
S1133B90892B8093B10081E0089580E0089560341A
S1133BA0710531F483E095B5987F892B85BDF3CFFA
S1133BB06134710554F46130710511F481E0F3CF7F
S1133BC06830710551F782E0EECF611581E0780726
S1133BD021F16115744009F785E0E5CF6034710582
S1133BE0D1F02CF46130710589F481E008C06115CD
S1133BF081E07807A1F06115744079F685E0909131
S1133C008100987F892B80938100C5CF683071052E
S1133C1021F682E0F4CF83E0F2CF84E0C4CF84E0E5
S1133C20EECF8FEB94E00C944111BF92CF92DF92D0
S1133C30EF92FF920F931F93CF93DF938C01B62ED5
S1133C40D42F7C01C0E088EA93E00E94FC1218168D
S1133C50190694F4CD1789F0670188EA93E00E946D
S1133C602813F70181937F018B1104C0F6011082A0
S1133C708C2F08C0CF5FE7CFDC2FF801ED0FF11DCB
S1133C80108280E0DF91CF911F910F91FF90EF9010
S1133C90DF90CF90BF900895EF92FF920F931F9300
S1133CA0CF93DF93CDB7DEB72A970FB6F894DEBF74
S1133CB00FBECDBF88EA93E00E94D714882309F48D
S1133CC0B6C688EA93E00E94FC12892B09F4AFC6B9
S1133CD040E46DE08FE794E00E94151E80937E041B
S1133CE080917804882321F08FE794E00E946F2A62
S1133CF010917E04112309F49AC643E050E06CE06D
S1133D0075E18FE794E00E94612A892B09F073C062
S1133D108091830480538A3018F067E174E183C68C
S1133D2047E050E063E874E0CE0101960E94872AE0
S1133D30CE0101960E943A2A182F843118F06FE0C0
S1133D4074E171C6682FCE0108960E94FA128FEBB7
S1133D5094E00E943D1240E050E060E070E08FEBA0
S1133D6094E00E94B50D62E08FEB94E00E94BB0DDD
S1133D7069E074E18FEB94E00E9404284AE050E08B
S1133D80612F8FEB94E00E94422964E074E18FEB91
S1133D9094E00E940428809182048936E1F048F47A
S1133DA0883601F5CE0108960E9473126FEF73E115
S1133DB053C28C3649F08037A9F4CE0108960E948C
S1133DC0CB1266EF73E148C2CE0108960E948512B9
S1133DD06BEF73E141C2CE0108960E94AD1260EF11
S1133DE073E13AC269EE73E18FEB94E00E94042818
S1133DF062EE73E13EC243E050E063EF74E18FE7AB
S1133E0094E00E94612A892B09F060C080918204A9
S1133E1080538A3018F06AED73E105C647E050E03C
S1133E2062E874E0CE0101960E94872ACE010196D1
S1133E300E943A2A182F843118F062ED73E1F3C519
S1133E40682FCE0108960E94FA12CE0108960E94AD
S1133E5098128FEB94E00E943D1240E050E060E045
S1133E6070E08FEB94E00E94B50D62E08FEB94E07C
S1133E700E94BB0D6CEC73E18FEB94E00E9404286C
S1133E804AE050E0612F8FEB94E00E94422963ECFA
S1133E9073E18FEB94E00E940428812F0E9486270F
S1133EA04AE050E0BC018FEB94E00E94A0298FEB24
S1133EB094E00E940512812F0E9486274AE050E078
S1133EC0BC0188EA93E00E94B329A8C543E050E00E
S1133ED068E075E18FE794E00E94612A892B09F07C
S1133EE061C08091820480538A3018F06BEB73E1D7
S1133EF09AC547E050E062E874E0CE0101960E9462
S1133F00872ACE0101960E943A2A182F843118F08C
S1133F1063EB73E188C5682FCE0108960E94FA12FC
S1133F208FEB94E00E943D1240E050E060E070E0CE
S1133F308FEB94E00E94B50D62E08FEB94E00E9459
S1133F40BB0D6DEA73E18FEB94E00E9404284AE014
S1133F5050E0612F8FEB94E00E94422966EA73E1FE
S1133F608FEB94E00E940428CE0108960E94E81288
S1133F70882341F061EA73E18FEB94E00E94042806
S1133F8061E307C06DE973E18FEB94E00E940428BC
S1133F9060E388EA93E00E9463288FEB94E00E9438
S1133FA005123CC544E050E06EEF74E18FE794E005
S1133FB00E94612A892B09F04CC0809183048053AC
S1133FC08A3018F065E973E12EC547E050E063E8F4
S1133FD074E0CE0101960E94872ACE0101960E94C8
S1133FE03A2A182F883018F06DE873E11CC58FEB5E
S1133FF094E00E943D1240E050E060E070E08FEBFE
S113400094E00E94B50D62E08FEB94E00E94BB0D3A
S113401065E873E18FEB94E00E9404284AE050E0E5
S1134020612F8FEB94E00E9442298EE0810F0E9461
S113403071268C014AE050E0BC018FEB94E00E94B1
S113404002294AE050E0B80188EA93E00E9413296B
S1134050A4CF44E050E06BE474E18FE794E00E9465
S1134060612A892B09F056C08091830480538A30D9
S113407018F06DE773E1D7C442E050E063E874E000
S1134080CE0101960E94872ACE0101960E943A2A07
S1134090F82E0E943719811103C065E773E1C3C488
S11340A0412F50E04650510965E874E0CE01019675
S11340B00E94872ACE0101960E943A2A8C01BC01F3
S11340C077278F2D0E9493268FEB94E00E943D1258
S11340D040E050E060E070E08FEB94E00E94B50DAA
S11340E062E08FEB94E00E94BB0D60E773E18FEB1D
S11340F094E00E9404284AE050E06F2D8FEB94E096
S11341000E9442294AE050E0602F8FEB94E00E9425
S1134110302943CF44E050E066E474E18FE794E053
S11341200E94612A892B09F05BC08091830480532B
S11341308A3018F068E673E176C442E050E063E840
S113414074E0CE0101960E94872ACE0101960E9456
S11341503A2AF82E0E943719811103C060E673E1F0
S113416062C4412F50E04650510965E874E0CE0125
S113417001960E94872ACE0101960E943A2A8C0158
S1134180BC018F2D90E00E94911D811103C068E550
S113419073E149C48FEB94E00E943D1240E050E08B
S11341A060E070E08FEB94E00E94B50D62E08FEB6D
S11341B094E00E94BB0D62E573E18FEB94E00E94F2
S11341C004284AE050E06F2D8FEB94E00E944229CE
S11341D04AE050E0B8018FEB94E00E940229DDCE62
S11341E044E050E063E075E18FE794E00E94612AC7
S11341F0892B09F043C080918404882319F06AE470
S113420073E111C48FEB94E00E943D1240E050E052
S113421060E070E08FEB94E00E94B50D62E08FEBFC
S113422094E00E94BB0D6FE373E18FEB94E00E9476
S11342300428809183048637A1F0883741F08936B9
S1134240B1F483E00E946E2666E373E105C083E067
S11342500E946E266DE273E18FEB94E00E940428C5
S11342609CCE81E00E946E2669E273E1F5CF61E2A3
S113427073E188EA93E00E944F288FCE45E050E036
S113428067EF74E18FE794E00E94612A892B09F0BB
S11342906CC080918504843669F118F4813651F03C
S11342A05DC0803709F445C0833709F057C00E94C8
S11342B09A1AB4C38091860480538A3018F069E155
S11342C073E1B1C347E050E066E874E0CE010196C3
S11342D00E94872ACE0101960E943A2A883018F05B
S11342E061E173E1A0C3825F80937D0481E08093E8
S11342F07C0494C38091860480538A3018F069E06A
S113430073E191C347E050E066E874E0CE010196A2
S11343100E94872ACE0101960E943A2A843118F01D
S113432061E073E180C380937B0481E080937A042D
S113433075C380918604823611F481E007C0833608
S113434011F482E003C0843621F483E0809379047D
S113435065C31092790469EF72E102C061EF72E102
S113436088EA93E00E944F2859C36AE175E18FE718
S113437094E00E94582A892BD9F40E9431198FEBBA
S113438094E00E943D1240E050E060E070E08FEB6A
S113439094E00E94B50D62E08FEB94E00E94BB0DA7
S11343A06BEE72E18FEB94E00E94042860E022C07F
S11343B065E175E18FE794E00E94582A892B19F58D
S11343C00E9431198FEB94E00E943D1240E050E0CE
S11343D060E070E08FEB94E00E94B50D62E08FEB3B
S11343E094E00E94BB0D6EED72E18FEB94E00E94AD
S11343F0042861E08FEB94E00E94EC118FEB94E0D1
S11344000E94051214C360E175E18FE794E00E94F5
S1134410582A892B29F40E9431190E94731A07C360
S11344206FEE74E18FE794E00E94582A892B39F4E7
S113443088EA93E00E94DE1465E873E02BC065EE21
S113444074E18FE794E00E94582A892B39F488EAB2
S113445093E00E94E21462E973E01CC045E050E07E
S11344606EED74E18FE794E00E94612A892BB9F420
S113447080918404853629F488EA93E00E94EC1440
S1134480CDC2843629F488EA93E00E941615C6C288
S113449060EA73E088EA93E00E94D529BFC269ED1F
S11344A074E18FE794E00E94582A892B39F40E9422
S11344B0311988EA93E00E947F14B9C243E050E0C6
S11344C064ED74E18FE794E00E94612A892BA1F4E2
S11344D080918204823739F488EA93E00E94E814D8
S11344E068EC72E13DCF8B3699F688EA93E00E943E
S11344F0E51462EB72E134CF43E050E06BEC74E11D
S11345008FE794E00E94612A892B09F013C148E0E7
S113451050E06BEC74E18FE794E00E94612A892BF0
S1134520D1F560E08FE794E00E94BE1C811103C0C6
S11345306AEA72E178C290915D0480915C049817F4
S113454019F06AE772E16FC280915A040E946917F8
S1134550811103C068E572E166C220915D044EE5F5
S113456054E060915B0480915A040E940217182F52
S1134570882309F453C26FE472E188EA93E00E944D
S113458004284AE050E0612F88EA93E00E9442291F
S113459065E372E1E5CE47E050E063EC74E18FE758
S11345A094E00E94612A892B09F066C061E08FE7DC
S11345B094E00E94BE1C811103C06DE272E133C21B
S11345C080915C048150883018F06BEF71E12BC24C
S11345D080915A040E946917811103C069ED71E149
S11345E022C220915C044EE554E060915B0480910A
S11345F05A040E942B17182F8823D9F160ED71E11A
S113460088EA93E00E9404284AE050E0612F88EA97
S113461093E00E94422963EC71E188EA93E00E94EE
S1134620042810E080915C04181708F0F7C1E12E0B
S1134630F12C4091660450E0F701E65AFB4F648187
S113464088EA93E00E94302980915C0490E001970D
S1134650E816F90634F46CE288EA93E00E9427280D
S113466006C063E573E088EA93E00E94D2291F5FE5
S1134670D9CF6BEB71E1D7C147E050E06BEB74E14C
S11346808FE794E00E94612A892BB1F462E08FE7FE
S113469094E00E94BE1C811103C063EB71E1C3C1AD
S11346A080915A040E946917882319F06AE971E11C
S11346B057CE6CE771E154CE47E050E063EB74E110
S11346C08FE794E00E94612A892B09F0E1CE68E625
S11346D071E188EA93E00E944F2868E571E188EA75
S11346E093E00E94042811E0F12C812F0E946917A5
S11346F0882369F040E150E0612F88EA93E00E944A
S1134700302960E288EA93E00E942728F3941F5F2F
S1134710103859F767E471E188EA93E00E944F2862
S11347204AE050E06F2D88EA93E00E94302967E365
S113473071E116CE44E050E06CEA74E18FE794E056
S11347400E94612A892BF1F46CEA74E18FE794E00A
S11347500E94582A892B29F4109278046EE171E1A1
S1134760FFCD65EA74E18FE794E00E94582A892B13
S113477031F481E08093780464E071E1F1CD6CEF71
S113478070E1EECD47E050E06CE974E18FE794E02E
S11347900E94612A892BF1F46CE974E18FE794E0BB
S11347A00E94582A892B31F481E08093770460EECB
S11347B070E1D6CD63E974E18FE794E00E94582A52
S11347C0892B29F41092770463EC70E1C9CD6BEB6B
S11347D070E1C6CD44E050E06EE574E18FE794E00B
S11347E00E94612A892B09F0FBC06EE574E18FE712
S11347F094E00E94582A892B29F40E943B256FEAF1
S113480070E1AECD66E574E18FE794E00E94582A2A
S1134810892B29F40E945A2562EA70E1A1CD4AE06D
S113482050E068E874E18FE794E00E94612A892BE4
S1134830B9F462E08FE794E00E94B11B882369F029
S1134840809175040E945E25809176040E946C25F7
S1134850809174040E946725E1C06AE970E1E3C0B5
S113486049E050E06EE774E18FE794E00E94612A2A
S1134870892BA9F50E947B25811103C062E870E1B0
S1134880D2C060E08FE794E00E94B11B882321F13D
S11348908091670490916804891719F062E570E1CA
S11348A0C2C08150883010F480E008C06DE170E12E
S11348B0BAC00DB407FEFDCF9EB58F5F909167041B
S11348C0891738F4E82FF0E0E959FB4F92819EBD37
S11348D0F0CF63E170E144CD6BE070E1A4C048E047
S11348E050E065E674E18FE794E00E94612A892B29
S11348F009F04DC00E947B25811103C063EF7FE066
S113490092C061E08FE794E00E94B11B8823E1F13B
S1134910809167048150883018F06EEB7FE083C08B
S113492061EB7FE088EA93E00E94042810E00FEF37
S113493080916704181708F071C0E12EF12C0EBDA8
S11349400DB407FEFDCF6EB5F701E959FB4F628345
S11349504091710450E088EA93E00E9430298091EC
S1134960670490E00197E816F90634F46CE288EAEB
S113497093E00E94272806C063E573E088EA93E089
S11349800E94D2291F5FD4CF69EA7FE04CC066E75A
S113499074E18FE794E00E94582A892B59F46091BE
S11349A07204CE0101960E94FA12CE0101960E9471
S11349B0731234C06EE674E18FE794E00E94582AC3
S11349C0892B59F460917204CE0101960E94FA1267
S11349D0CE0101960E94851221C061EA7FE0C0CC1D
S11349E060E574E18FE794E00E94582A892B29F44A
S11349F00E9431190E9459191AC080917F04833092
S1134A0019F40E949A1A13C06AEE74E18FE794E0D5
S1134A100E94582A892B29F40E946B190E9431198B
S1134A2006C068E97FE088EA93E00E944F282A964E
S1134A300FB6F894DEBF0FBECDBFDF91CF911F91AB
S1134A400F91FF90EF9008950E9446190E94D2188A
S1134A5060ED77E080E090E00E94DA250E94731A0E
S1134A60CBE3D4E10E944C1E0E947A172097D1F325
S1134A700E943B14F7CF61E08DE00E94F32661E0D1
S1134A808BE00E94F32661E08AE00E94F32660E056
S1134A908DE00E94322760E08BE00E94322761E0C3
S1134AA08AE00E9432278CB580618CBD8CB580640D
S1134AB08CBD08958CB58F7B8CBD0895811103C086
S1134AC08CB5806202C08CB58F7D8CBD08959CB579
S1134AD0937F892B8CBD08959CB59C7F282F2370D0
S1134AE0922B9CBD2DB582FB992790F9822F8E7F46
S1134AF0892B8DBD08959CB5892F807496FF03C0C2
S1134B008CB58295817008951F920F920FB60F9203
S1134B1011242F933F938F939F93AF93BF938091CF
S1134B20EE049091EF04A091F004B091F10430915F
S1134B30F2040196A11DB11D232F2D5F2D3720F006
S1134B402D570196A11DB11D2093F2048093EE040C
S1134B509093EF04A093F004B093F1048091EA04DD
S1134B609091EB04A091EC04B091ED040196A11D89
S1134B70B11D8093EA049093EB04A093EC04B093EA
S1134B80ED04BF91AF919F918F913F912F910F9021
S1134B900FBE0F901F9018958FB7F8942091EE04D4
S1134BA03091EF044091F0045091F1048FBFB901AA
S1134BB0CA0108959B01AC017FB7F8948091EA047F
S1134BC09091EB04A091EC04B091ED0466B5A89B20
S1134BD005C06F3F19F00196A11DB11D7FBFBA2F0B
S1134BE0A92F982F8827860F911DA11DB11D62E062
S1134BF0880F991FAA1FBB1F6A95D1F7BC012DC04E
S1134C00FFB7F8948091EA049091EB04A091EC042E
S1134C10B091ED04E6B5A89B05C0EF3F19F00196ED
S1134C20A11DB11DFFBFBA2FA92F982F88278E0F62
S1134C30911DA11DB11DE2E0880F991FAA1FBB1F82
S1134C40EA95D1F7861B970B885E9340C8F22150F2
S1134C5030404040504068517C4F2115310541059A
S1134C60510571F60895789484B5826084BD84B545
S1134C70816084BD85B5826085BD85B5816085BD53
S1134C80EEE6F0E0808181608083E1E8F0E010826C
S1134C90808182608083808181608083E0E8F0E0AD
S1134CA0808181608083E1EBF0E080818460808397
S1134CB0E0EBF0E0808181608083EAE7F0E08081CE
S1134CC0846080838081826080838081816080832E
S1134CD08081806880831092C100089580931203BC
S1134CE00895982F8E3008F09E509770809112038B
S1134CF08295880F880F807C892B80937C0080911B
S1134D007A00806480937A0080917A0086FDFCCFDB
S1134D102091780040917900942F80E030E0282B96
S1134D20392BC90108951F93CF93DF93182FEB01FB
S1134D3061E00E94F326209709F44AC0CF3FD105D1
S1134D4009F449C0E12FF0E0EA59FA4E8491833026
S1134D50C1F0843028F4813051F08230B1F50CC0B8
S1134D60863019F1873049F1843079F514C084B55F
S1134D70806884BDC7BD33C084B5806284BDC8BDAE
S1134D802EC080918000806880938000D093890039
S1134D90C093880024C0809180008062809380004A
S1134DA0D0938B00C0938A001AC08091B0008068B1
S1134DB08093B000C093B30012C08091B0008062B1
S1134DC08093B000C093B4000AC0C038D1051CF46D
S1134DD0812F60E002C0812F61E00E943227DF91C1
S1134DE0CF911F910895CF93DF93482F50E0CA01CC
S1134DF08E5A9A4EFC013491425C5A4EFA018491C7
S1134E00882369F190E0880F991FFC01E05EFA4E57
S1134E10A591B491FC01E65DFA4EC591D491662347
S1134E2051F42FB7F8948C91932F909589238C93F8
S1134E30888189230BC0623061F42FB7F8948C9178
S1134E40932F909589238C938881832B88832FBFFC
S1134E5006C09FB7F8948C91832B8C939FBFDF91EE
S1134E60CF910895482F50E0CA018A599A4EFC0107
S1134E702491CA018E5A9A4EFC019491425C5A4E76
S1134E80FA013491332309F440C0222351F1233031
S1134E9071F0243028F42130A1F0223011F514C02F
S1134EA02630B1F02730C1F02430D9F404C0809109
S1134EB080008F7703C0809180008F7D8093800075
S1134EC010C084B58F7702C084B58F7D84BD09C0BE
S1134ED08091B0008F7703C08091B0008F7D809364
S1134EE0B000E32FF0E0EE0FFF1FE65DFA4EA59150
S1134EF0B4912FB7F894662321F48C91909589236B
S1134F0002C08C91892B8C932FBF0895682F70E079
S1134F10CB018A599A4EFC012491CB018E5A9A4EA8
S1134F20FC014491625C7A4EFB019491992319F43B
S1134F3020E030E03CC0222351F1233071F02430D2
S1134F4028F42130A1F0223011F514C02630B1F03C
S1134F502730C1F02430D9F404C0809180008F77C9
S1134F6003C0809180008F7D8093800010C084B541
S1134F708F7702C084B58F7D84BD09C08091B00055
S1134F808F7703C08091B0008F7D8093B000892F0C
S1134F9090E0880F991F8C5C9A4EFC01A591B49106
S1134FA08C9120E030E0842311F021E030E0C9014D
S1134FB008950895CF92DF92EF92FF920F931F937B
S1134FC0CF93DF937C016B018A01C0E0D0E00FC076
S1134FD0D6016D916D01D701ED91FC910190F081A5
S1134FE0E02DC7010995C80FD91F015010400115C4
S1134FF0110571F7CE01DF91CF911F910F91FF90B1
S1135000EF90DF90CF900895EF92FF920F931F934C
S1135010CF93DF937C018B01C0E0D0E0F8010F5FF8
S11350201F4F6491662359F0D701ED91FC910190D3
S1135030F081E02DC7010995C80FD91FEFCFCE012C
S1135040DF91CF911F910F91FF90EF900895DC01B4
S1135050ED91FC910190F081E02D09950895EF9276
S1135060FF920F931F938C01DC01ED91FC91019051
S1135070F081E02D6DE009957C01D801ED91FC9162
S11350800190F081E02DC8016AE009959C012E0D84
S11350903F1DC9011F910F91FF90EF900895EF926A
S11350A0FF920F931F937C010E9404288C01C70177
S11350B00E942F289C01200F311FC9011F910F91BD
S11350C0FF90EF900895EF92FF920F931F937C014E
S11350D0DC01ED91FC910190F081E02D09958C01AA
S11350E0C7010E942F28080F191FC8011F910F9193
S11350F0FF90EF900895CF93DF93DB010D90002094
S1135100E9F71197A61BB70BEC01E881F98102803E
S1135110F381E02DAD010995DF91CF9108954F9270
S11351205F927F928F929F92AF92BF92CF92DF92C3
S1135130EF92FF920F931F93DF93CF93CDB7DEB718
S1135140A1970FB6F894DEBF0FBECDBF2C01742E0D
S1135150CB01223008F42AE019A231E2C32ED12C6B
S1135160CC0EDD1E822E9924AA24BB24672D752F14
S1135170A50194010E94F82979018A01C801B701A7
S1135180A50194010E94E829472D461B0894C108F3
S1135190D1084A3014F4405D01C0495CF6014083F3
S11351A0E114F1040105110521F07E2C5F2DC801E5
S11351B0DDCFC201B6010E947B28A1960FB6F894F8
S11351C0DEBF0FBECDBFCF91DF911F910F91FF9036
S11351D0EF90DF90CF90BF90AF909F908F907F9093
S11351E05F904F900895DC012115310541F4ED9154
S11351F0FC910190F081E02D642F099508950E949F
S11352008F280895EF92FF920F931F939A017B01C9
S113521000E010E0B801A7010E94F3281F910F914C
S1135220FF90EF900895CF92DF92EF92FF920F9349
S11352301F936C017B019A0100E010E0B801A70103
S11352400E94F3288C01C6010E942F28080F191F01
S1135250C8011F910F91FF90EF90DF90CF900895B8
S1135260EF92FF920F931F939A01E62EFF2400E022
S113527010E0B801A7010E94F3281F910F91FF903D
S1135280EF900895CF92DF92EF92FF920F931F93C6
S11352906C01E62E9A01FF2400E010E0B801A7019A
S11352A00E94F3288C01C6010E942F28080F191FA1
S11352B0C8011F910F91FF90EF90DF90CF90089558
S11352C0CF92DF92EF92FF920F931F93CF93DF93CE
S11352D0EC016A017B012115310541F4E881F98172
S11352E00190F081E02D642F09951FC02A3031050B
S11352F0D1F477FF17C0E881F9810190F081E02DA6
S11353006DE209958C0144275527BA014C195D09B2
S11353106E097F09CE012AE00E948F289801280F88
S1135320391F04C02AE00E948F289C01C901DF9123
S1135330CF911F910F91FF90EF90DF90CF90089540
S1135340EF92FF920F931F937B019A010027F7FCC2
S11353500095102FB801A7010E9460291F910F9199
S1135360FF90EF900895CF92DF92EF92FF920F9308
S11353701F936C017B019A010027F7FC0095102F05
S1135380B801A7010E9460298C01C6010E942F2840
S1135390080F191FC8011F910F91FF90EF90DF9024
S11353A0CF9008950E947B280895EF92FF920F9367
S11353B01F937C010E947B288C01C7010E942F2827
S11353C0080F191FC8011F910F91FF90EF900895C6
S11353D0DB018F939F930E94202ABF91AF91A29FDC
S11353E0800D911DA39F900DB29F900D11240895DF
S11353F0A1E21A2EAA1BBB1BFD010DC0AA1FBB1FD5
S1135400EE1FFF1FA217B307E407F50720F0A21B46
S1135410B30BE40BF50B661F771F881F991F1A94B3
S113542069F760957095809590959B01AC01BD01DD
S1135430CF010895EE0FFF1F0590F491E02D09941C
S11354400E942B2AA59F900DB49F900DA49F800DC0
S1135450911D11240895A29FB001B39FC001A39F81
S1135460700D811D1124911DB29F700D811D112499
S1135470911D0895FC0188279927E89421912032F1
S1135480E9F3293010F02E30C8F32B3241F02D32DD
S113549039F4689404C00E94B02A820F911D2191AE
S11354A020532A30C0F31EF4909581959F4F0895A0
S11354B0FB01DC018D91059080190110D9F3990B42
S11354C00895FB01DC014150504030F08D9105906E
S11354D0801919F40020B9F7881B990B0895DC0191
S11354E06C9161546A3108F060526F596D93C1F741
S11354F00895FB01DC014150504030F08D91019042
S1135500801919F40020B9F7881B990B0895FB0141
S1135510DC014150504048F001900D920020C9F741
S113552001C01D9241505040E0F70895FB01519194
S11355305523A9F0BF01DC014D9145174111E1F755
S113554059F4CD010190002049F04D9140154111CD
S1135550C9F3FB014111EFCF81E090E00197089579
S11355607AE0979F902D879F802D910D11240895A7
S1075570F894FFCFD9
S1135574000103070F1F3F7F0080C0E0F0F8FCFE2A
S11355840000000000000000000000000000000013
S11355940000000000000000000000000000000003
S11355A400000000000000000000000000000000F3
S11355B40000000000000000000000000000008063
S11355C480800000000000000000000000000000D3
S11355D4008080C0C0000000000000000000000043
S11355E400000000000000000000000000000000B3
S11355F400000000000000000000000000000000A3
S11356040000000000000000000000000000000092
S11356140000000080C0E0F0F8FCF8E000000000A6
S113562400000000000000000000000000808080F2
S1135634808000808000000000808080808000FFE3
S1135644FFFF000000008080808000008080000054
S113565480FFFF80800080800080808080008080C4
S11356640000000000808000008C8E84000080F81C
S1135674F8F88000000000000000000000000000B2
S1135684F0F0F0F0F0F0F0F0F0F0F0F0E0E0C080D2
S113569400E0FCFEFFFFFF7FFFFFFFFFFF000000B1
S11356A40000000000000000000000FEFFC701012C
S11356B4010183FFFF00007CFEC70101010183FF98
S11356C4FFFF0038FEC78301010183C7FFFF000009
S11356D401FFFF010100FFFF0701010100007FFF3B
S11356E480000000FFFF7F0000FFFFFF000001FFB8
S11356F4FFFF0100000000000000000000000000A3
S1135704030F3F7F7FFFFFFFFFFFFFFFE7C7C78F45
S11357148F9FBFFFFFC3C0F0FFFFFFFFFFFCFCFC34
S1135724FCFCFCFCFCF8F8F0F0E0C000010303030B
S11357340303010303000000000103030303010145
S11357440301000000010303030301010303000038
S11357540003030000000303000000000000000134
S11357640303030303010000000103010000000319
S1135774030100000000000000000000000000001D
S1135784D00701000000005F0DDA27D927E90AEAEF
S11357940B010C9B0B170C4C0C690C000000005FF4
S11357A40DDA278A10E90A300FD50D9B0B170C4C20
S11357B40CE511000000005A13DA27FC1228130C1C
S11357C41348130D0A005042005043005044004F44
S11357D44B002D740068657800646563002D6E00C9
S11357E42D68002D70002D78002D6D002D6F002D77
S11357F473002D72004543484F5F454E41424C456A
S113580444004543484F5F44495341424C45440096
S10B58144552524F525F31006E
S9030000FC
