S0150000444441545F506C6174666F726D2E737265634E
S11300000C94BF0A0C94241A0C941A1A0C94E70A40
S11300100C94E70A0C94E70A0C94E70A0C94E70A98
S11300200C94E70A0C94E70A0C94E70A0C94E70A88
S11300300C94E70A0C94E70A0C94E70A0C94E70A78
S11300400C94CD280C94E70A0C9457140C94FF14C8
S11300500C94E70A0C94E70A0C94E70A0C94E70A58
S11300600C94E70A0C94E70AE71D0D1EEC1DF11D24
S1130070F61DFB1D001E00000000003E5B4F5B3EB2
S11300803E6B4F6B3E1C3E7C3E1C183C7E3C181C59
S1130090577D571C1C5E7F5E1C00183C1800FFE750
S11300A0C3E7FF0018241800FFE7DBE7FF30483AF6
S11300B0060E2629792926407F050507407F052558
S11300C03F5A3CE73C5A7F3E1C1C08081C1C3E7FE0
S11300D014227F22145F5F005F5F06097F017F00A7
S11300E06689956A606060606094A2FFA2940804C7
S11300F07E040810207E201008082A1C08081C2AE8
S113010008081E101010100C1E0C1E0C30383E383F
S113011030060E3E0E06000000000000005F0000E6
S11301200007000700147F147F14242A7F2A122357
S11301301308646236495620500008070300001C67
S11301402241000041221C002A1C7F1C2A08083E70
S11301500808008070300008080808080000606083
S11301600020100804023E5149453E00427F4000F1
S113017072494949462141494D331814127F1027C9
S1130180454545393C4A4949314121110907364918
S1130190494936464949291E0000140000004034EC
S11301A000000008142241141414141400412214F1
S11301B00802015909063E415D594E7C1211127C18
S11301C07F494949363E414141227F4141413E7F79
S11301D0494949417F090909013E414151737F0859
S11301E008087F00417F41002040413F017F0814FF
S11301F022417F404040407F021C027F7F04081060
S11302007F3E4141413E7F090909063E4151215E3D
S11302107F09192946264949493203017F01033FD1
S11302204040403F1F2040201F3F4038403F631460
S113023008146303047804036159494D43007F4162
S113024041410204081020004141417F040201029F
S113025004404040404000030708002054547840C4
S11302607F284444383844444428384444287F3858
S11302705454541800087E090218A4A49C787F08DA
S113028004047800447D40002040403D007F102855
S1130290440000417F40007C047804787C08040416
S11302A0783844444438FC1824241818242418FCAE
S11302B07C08040408485454542404043F44243C53
S11302C04040207C1C2040201C3C4030403C4428C2
S11302D01028444C9090907C4464544C440008365C
S11302E041000000770000004136080002010204CA
S11302F0023C2623263C1EA1A161123A4040207AEA
S11303003854545559215555794122545478422131
S11303105554784020545579400C1E527212395568
S11303205555593954545459395554545800004565
S11303307C410002457D420001457C407D12111242
S11303407DF0282528F07C545545002054547C54D5
S11303507C0A097F4932494949323A4444443A3291
S11303604A4848303A4141217A3A42402078009D37
S1130370A0A07D3D4242423D3D4040403D3C24FFE3
S11303802424487E4943662B2FFC2F2BFF0929F692
S113039020C0887E090320545479410000447D41E3
S11303A03048484A32384040227A007A0A0A727D3C
S11303B00D19317D2629292F282629292926304857
S11303C04D4020380808080808080808382F10C8C5
S11303D0ACBA2F102834FA00007B000008142A1449
S11303E02222142A1408AA005500AAAA55AA55AA1A
S11303F0000000FF00101010FF00141414FF001080
S113040010FF00FF1010F010F0141414FC0014146A
S1130410F700FF0000FF00FF1414F404FC14141789
S1130420101F10101F101F1414141F00101010F0B0
S1130430000000001F101010101F10101010F010FA
S1130440000000FF101010101010101010FF10000A
S11304500000FF140000FF00FF00001F1017000041
S1130460FC04F414141710171414F404F40000FF1B
S113047000F714141414141414F700F714141417B4
S11304801410101F101F141414F4141010F010F092
S113049000001F101F0000001F14000000FC1400C7
S11304A000F010F01010FF10FF141414FF141010BB
S11304B0101F00000000F010FFFFFFFFFFF0F0F03E
S11304C0F0F0FFFFFF0000000000FFFF0F0F0F0F11
S11304D00F3844443844FC4A4A4A347E0202060631
S11304E0027E027E0263554941633844443C044021
S11304F07E201E2006027E020299A5E7A5991C2AE9
S1130500492A1C4C7201724C304A4D4D30304878A7
S11305104830BC625A463D3E494949007E010101CA
S11305207E2A2A2A2A2A44445F444440514A4440A9
S113053040444A51400000FF0103E080FF000008EE
S1130540086B6B083612362436060F090F060000B6
S113055018180000001010003040FF0101001F01B6
S1130560011E00191D1712003C3C3C3C0000000019
S1130570005350492042616420426974206F7264C0
S11305806572206F7074696F6E0053504920426128
S113059064206D6F6465206F7074696F6E005350D2
S11305A0492042616420436C6F636B204F7074690F
S11305B06F6E004552524F52212054686973207067
S11305C0696E20697320666F7262696464656E2067
S11305D0666F722043530053545245414D494E4770
S11305E05F53544F50504544002053544F5050458E
S11305F0440053545245414D494E47002020202089
S11306002020202020202035562C522C472C5241CB
S1130610570031332C332E332C415245462C413074
S11306202D41370031322C31312E2E2E332C322CE9
S1130630472C522C52582C54580020202020202083
S1130640342E4E657720436F6D6D616E6473206840
S1130650617665206265656E2061646465642070FE
S11306606C65617365207570646174652074686974
S113067073206C6973740D0A00202020202020331D
S11306802E436F6D6D616E647320617265206361CA
S113069073652073656E7369746976652C2077655C
S11306A0206E65656420746F20636865636B2074D5
S11306B06869730D0A00202020202020322E416C0E
S11306C06C207468726565207479706573206F6638
S11306D02073747265616D2063616E2062652061B0
S11306E0637469766520746F6765746865722061E8
S11306F06E6420646174612077696C6C206265208B
S1130700696E20436F6D6D61205365706172617411
S113071065642076616C7565730D0A000D0A4E6F71
S113072074653A20312E4354524C2B4320666F6C2F
S11307306C6F7765642062792052455455524E207F
S1130740616C736F2073746F70732073747265615E
S11307506D0D0A000968656C703A2053686F772044
S1130760746869732068656C70206D657373616764
S1130770650D0A0009756469733A206469736162DE
S11307806C65205561727420636F6E6E6563746965
S11307906F6E3B2063616E20626520757365207403
S11307A06F206D616B6520612070617373207468C4
S11307B0726F75676820636F6E6E656374696F6EC0
S11307C0206265747765656E20426C7565746F6F21
S11307D0746820616E6420616E6F74686572205560
S11307E0415254206465766963652E0D0A000973CD
S11307F06E6F6F70643A20456E61626C657320742D
S11308006865205458206F66204156522062616307
S11308106B204F4E0D0A0009736E6F6F70653A209E
S113082064697361626C6573205458206F6620415B
S1130830565220616E64206B656570732074686520
S113084020525820656E61626C656420736F207459
S11308506861742077652063616E2072656164202D
S113086064617461206F6620616E6F7468657220C4
S1130870554152542064657669636520636F6E6EDA
S113088065637465640D0A000972657365743A20C2
S11308907265736574732074686520646576696332
S11308A0650D0A00097773706B3A206B65657020DB
S11308B07768697465207370616365206368617229
S11308C06163746572730D0A0009777370723A205C
S11308D064697363617264207768697465207370F6
S11308E061636520636861726163746572730D0A84
S11308F00009636173655F643A2064697361626CC3
S11309006520436173652073656E736974697669E4
S113091074790D0A0009636173655F653A20656E39
S113092061626C6520436173652073656E736974DD
S113093069766974790D0A00096273706163655F91
S1130940643A2064697361626C65204261636B730D
S11309507061636520646574656374696F6E0D0A04
S113096000096273706163655F653A20656E616258
S11309706C65204261636B737061636520646574A8
S1130980656374696F6E0D0A0009617464653A20C9
S113099064697361626C65205465726D696E616C23
S11309A0204543484F0D0A00096174653A20656E7D
S11309B061626C65205465726D696E616C2045439B
S11309C0484F0D0A000973686F773A2053686F77B0
S11309D02070696E2D6F7574206F6E204F4C4544E6
S11309E020446973706C61790D0A0009202020206D
S11309F0202020202020796F752063616E20737081
S1130A0065636966792044454320696620796F757A
S1130A102077616E742E0D0A0009202020202020EA
S1130A20202020207468652073657175656E636588
S1130A30206F6620706172616D65746572732069E0
S1130A4073206E6F7420696D706F7274616E742C94
S1130A50206D6178206E756D626572206F6620620C
S1130A60797465732063616E20626520382C20647C
S1130A70656661756C7420697320484558207479E3
S1130A8070650D0A0009202020202020202020202D
S1130A90666F726D61743A69326372656164202DA8
S1130AA0733C736C6176655F616464723E202D6E85
S1130AB03C6E6F2E206F662062797465733E202D24
S1130AC0723C72656769737465725F616464723ED7
S1130AD0205B2D744845583A4445435D0D0A00098E
S1130AE0693263726561643A2052656164206461AD
S1130AF074612066726F6D207265717565737465BB
S1130B00642049324320736C61766520646576699C
S1130B1063650D0A000920202020202020202020A9
S1130B20796F752063616E207370656369667920DF
S1130B3044454320696620796F752077616E742E71
S1130B400D0A000920202020202020202020746865
S1130B50652073657175656E6365206F66207061CD
S1130B6072616D6574657273206973206E6F742091
S1130B70696D706F7274616E742C206D6178206E73
S1130B80756D626572206F66206279746573206387
S1130B90616E20626520382C2064656661756C7412
S1130BA02069732048455820747970650D0A00093E
S1130BB020202020202020202020666F726D617468
S1130BC03A6932637772697465202D733C736C6182
S1130BD076655F616464723E202D6E3C6E6F2E20DC
S1130BE06F662062797465733E202D723C7265676E
S1130BF069737465725F616464723E202D683C643D
S1130C0061746162797465312C64617461627974B0
S1130C1065322E2E3E205B2D744845583A44454398
S1130C205D0D0A000969326377726974653A205769
S1130C3072697465206461746120746F20726571D7
S1130C407565737465642049324320736C617665FD
S1130C50206465766963650D0A0009202020202040
S1130C602020202020666F726D61743A20693263FF
S1130C7070696E67202D733C736C6176655F616487
S1130C8064723E0D0A000969326370696E673A2026
S1130C90436865636B7320696620612072657175B2
S1130CA065737465642049324320736C61766520F2
S1130CB064657669636520697320726573706F6E0D
S1130CC073697665206F72206E6F740D0A0009696E
S1130CD032637363616E3A205363616E2049324319
S1130CE02062757320666F7220616C6C2064657677
S1130CF0696365730D0A000973747265616D533A13
S1130D002053746F7020616C6C2073747265616D14
S1130D10730D0A000973747265616D50583A20634B
S1130D206F6E74696E756F75736C79205374726528
S1130D30616D207468652056616C7565206F66204E
S1130D40504F525420582C207768657265205820E3
S1130D5063616E20626520422C2043206F72204420
S1130D6020696E204845580D0A0009737472656144
S1130D706D41583A20636F6E74696E756F75736C4C
S1130D80792053747265616D2074686520646174A0
S1130D9061206F6620616E616C6F672050696E2000
S1130DA0580D0A000973747265616D44583A2063E2
S1130DB06F6E74696E756F75736C79205374726598
S1130DC0616D20746865207374617465206F66209A
S1130DD06469676974616C2050696E20580D0A005B
S1130DE009746F67583A20746F67676C65205820E0
S1130DF070696E206469676974616C206F757470C2
S1130E0075740D0A000961726566583A2073657439
S1130E1020616E616C6F67207265666572656E63D2
S1130E20652C2061726566693A696E7465726E61DB
S1130E306C2C2061726566783A65787465726E61AF
S1130E406C2C2061726566763A7663630D0A00093C
S1130E5061676574583A2067657420582070696E1C
S1130E6020616E616C6F672056616C75650D0A00B8
S1130E700970776D665820593A207365742070772D
S1130E806D206672657175656E6379206469766933
S1130E90736F72206F6E20582070696E206F662009
S1130EA056616C756520595B317C387C33327C36F5
S1130EB0347C3132387C3235367C313032345D0D1D
S1130EC00A000970776D765820593A2073657420AA
S1130ED070776D206F6E20582070696E206F6620C9
S1130EE056616C7565205928302D323535290D0A27
S1130EF00009676574583A20676574205820706942
S1130F006E206469676974616C2056616C75650D47
S1130F100A000973657470583A2053657420582088
S1130F2070696E20696E7075742050756C6C2D75C7
S1130F30700D0A000973657469583A20536574206A
S1130F40582070696E20696E7075740D0A000973FB
S1130F5065746C583A2053657420582070696E206B
S1130F604C6F770D0A000973657468583A2053650D
S1130F707420582070696E20486967680D0A00441F
S1130F8044415420506C6174666F726D200D0A5593
S1130F90736167653A0D0A004552524F5228212960
S1130FA0004552524F525F31004552524F525F3208
S1130FB0004461746120526561643A0D0A0045522F
S1130FC0524F52212043616E6E6F742050726F63D2
S1130FD0657373206D6F7265207468616E203820AC
S1130FE0627974657320696E206F6E652073686F13
S1130FF0742E004552524F522120456E61626C6539
S113100020535049206669727374004552524F52FE
S11310105F3200446174612053656E74004552521E
S11310204F52212043616E6E6F742050726F63655E
S11310307373206D6F7265207468616E203820624E
S11310407974657320696E206F6E652073686F74A0
S11310502E004552524F5221204279746520436F2D
S1131060756E7420646F65736E2774206D6174638C
S113107068206E756D626572206F66206279746592
S113108073004552524F522120456E61626C6520B7
S1131090535049206669727374004552524F525F2F
S11310A032005350492044697361626C6564005393
S11310B0504920456E61626C6564004552524F523E
S11310C05F31004261636B737061636520646574B2
S11310D0656374696F6E2044697361626C65640052
S11310E04261636B737061636520646574656374E6
S11310F0696F6E20456E61626C6564004552524FA3
S1131100525F3100436173652053656E736974697E
S1131110766974792044697361626C656400436123
S113112073652053656E73697469766974792045B3
S11311306E61626C65640020446576696365732042
S1131140466F756E642E000D0A5363616E20436F03
S11311506D706C6574652E00446576696365204125
S11311606464726573733A005363616E6E696E678B
S113117020493243206275732E2E2E004465766911
S11311806365204E6F7420526573706F6E64696E70
S11311906720746F2050696E6700446576696365E3
S11311A020526573706F6E64656420746F2050699B
S11311B06E67004552524F525F32004552524F52B1
S11311C05F33004461746120526561643A0D0A0022
S11311D05374617475733A20004552524F52212062
S11311E0446576696365204E6F7420466F756E643E
S11311F02F526573706F64696E67004552524F5287
S1131200212043616E6E6F742072656164206D6F7E
S11312107265207468616E20382062797465732069
S1131220696E206F6E652073686F742E004552528C
S11312304F525F320044617461205772697474655F
S11312406E205375636365737366756C6C790053B4
S113125074617475733A20004552524F52212044F0
S11312606576696365204E6F7420466F756E642FD2
S1131270526573706F64696E67004552524F522114
S1131280204279746520436F756E7420646F6573B2
S11312906E2774206D61746368206E756D6265726B
S11312A0206F66206279746573004552524F525F15
S11312B03200494E434C5544494E472057484954FF
S11312C045205350414345004558434C5544494EED
S11312D047205748495445205350414345005465DD
S11312E0737420537563636573730068656C6C6F06
S11312F0004552524F525F33004552524F525F34B1
S1131300004552524F525F32004552524F525F31A4
S1131310004552524F525F32004552524F525F3194
S1131320004552524F525F320056434300455854D1
S113133045524E414C00494E5445524E414C004199
S11313404E414C4F4720524546004552524F525F42
S1131350310050574D4620004552524F525F3300E2
S11313604552524F525F32004552524F525F310044
S113137050574D20004552524F525F320045525251
S11313804F525F3100414E414C4F4720004552526D
S11313904F525F32004552524F525F31004C4F570B
S11313A00048494748005354415445200047504998
S11313B04F20004552524F525F32004552524F5215
S11313C05F3100544F47474C454420004750494F34
S11313D020004552524F525F32004552524F525FE5
S11313E031004552524F523300434D445F45520041
S11313F0494E50555400505F5550004C4F570048CB
S11314004947480053455420004750494F20004560
S113141052524F525F32004552524F525F310020B8
S113142020504C4154464F524D002020202044442B
S1131430415400444441545F494E495449414C4944
S11314405345440D0A0070776D660070776D760021
S11314507265736574007370695F64697300737097
S1131460695F656E007370695F72656164007370B3
S1131470695F63736C007370695F63736800737092
S1131480695F7772697465007370695F636F6E6614
S11314906967006273706163655F640062737061A1
S11314A063655F6500636173655F640063617365B1
S11314B05F65006932637363616E006932637069EA
S11314C06E670069326372656164006932637772C2
S11314D06974650077737072007564697300736E64
S11314E06F6F706500617464650068656C7000619D
S11314F0746500746F670073747265616D00616771
S113150065740061726566006765740073657400D4
S113151073686F7700746573740068656C6C6F0032
S113152000000000240027002A000000000025001D
S113153028002B00000000002300260029000404DA
S11315400404040404040202020202020303030367
S11315500303010204081020408001020408102043
S1131560010204081020000000070002010000032B
S1131570040600000000000000006A16F91F112490
S11315801FBECFEFD8E0DEBFCDBF13E0A0E0B1E0D7
S1131590E6E0FCE502C005900D92A83AB107D9F740
S11315A024E0A8EAB3E001C01D92A33FB207E1F72B
S11315B01AE0CFEBDAE004C02197FE010E94632D0C
S11315C0CD3BD107C9F70E946C280C94012E0C94D2
S11315D000002F923F924F925F926F927F928F9270
S11315E09F92AF92BF92CF92DF92EF92FF920F93AE
S11315F01F93CF93DF9300D000D000D0CDB7DEB7D8
S11316005C017E836D836A014901C801FA82E98223
S11316109801241B350B290122F444245524421A31
S1131620530A94014D815E81241B350B790122F408
S1131630EE24FF24E21AF30AE414F5045CF4382DD2
S1131640292D4C01832F922F3D812E81DE82CD8264
S1131650C32ED22EAD81BE818A169B060CF05FC0CC
S1131660A819B909BC83AB839601281B390B19014E
S113167022F422243324221A330A6B807C807720BC
S11316801CF4BFEF6B1A7B0A759467948C159D0547
S11316901CF401E010E002C00FEF1FEF2D813E812A
S11316A0281539050CF45BC06C019D818E819E82E6
S11316B08D82892E982E02C00FEF1FEFE414F504DB
S11316C074F4D501ED91FC910480F581E02D29811C
S11316D03A814D815E81B601C50109950DC0D501E0
S11316E0ED91FC910480F581E02D29813A81A601D8
S11316F06D817E81C50109956218730832F4C00EAC
S1131700D11E2B813C81620E731E4D815E814F5F21
S11317105F4F5E834D838416950684F620C0D40102
S11317202D813E81A21BB30BBC83AB839C012C197E
S11317303D09190122F422243324221A330A6B802E
S11317407C8077201CF43FEF631A730A75946794C6
S1131750C816D9060CF0B0CF01E010E0AFCF269642
S11317600FB6F894DEBF0FBECDBFDF91CF911F91AE
S11317700F91FF90EF90DF90CF90BF90AF909F902C
S11317808F907F906F905F904F903F902F9008952F
S11317906F927F928F929F92AF92BF92CF92DF927D
S11317A0EF92FF920F931F93CF93DF93EC014B01C2
S11317B05A0169013801E881F9810284F385E02D39
S11317C087010995A501460D571D41505109E8812E
S11317D0F9810284F385E02D9601B401CE010995C7
S11317E0E881F9810084F185E02D9301A501B4011C
S11317F0CE010995C80CD91CB60161507109E88164
S1131800F9810084F185E02D9301A501CE010995AC
S1131810DF91CF911F910F91FF90EF90DF90CF90C8
S1131820BF90AF909F908F907F906F900895EF92AC
S1131830FF920F931F93240F351F21503109DC01B0
S1131840ED91FC910680F781E02D780189019B01DF
S113185009951F910F91FF90EF900895EF92FF92D9
S11318600F931F93260F371F21503109DC01ED918F
S1131870FC910680F781E02D78018A0109951F917A
S11318800F91FF90EF9008956F927F928F929F92A5
S1131890AF92BF92CF92DF92EF92FF920F931F937A
S11318A0CF93DF936C01EB014A01580137017B01AF
S11318B0E20EF31E6E157F0584F4D601ED91FC91C2
S11318C00084F185E02D83019501A401BE01C601C8
S11318D009952196CE15DF0584F3DF91CF911F91F1
S11318E00F91FF90EF90DF90CF90BF90AF909F90BB
S11318F08F907F906F900895EF92FF920F931F93B4
S1131900DC011A960D911C911B9718962D913C9110
S11319101997ED91FC910684F785E02D7B0140E059
S113192050E060E070E009951F910F91FF90EF90F7
S113193008950895FC011382128287E193E0918354
S11319408083758364835783468371876087538755
S11319504287158A158614861786168681E0848B3D
S11319602FEF3FEF338B228B318B208B868B0895A7
S11319702F923F924F925F926F927F928F929F929B
S1131980AF92BF92CF92DF92EF92FF920F931F9389
S1131990CF93DF93CDB7DEB761970FB6F894DEBF70
S11319A00FBECDBFDC011896ED91FC9119976E170F
S11319B07F070CF0C3C01A96ED91FC911B974E174C
S11319C05F070CF0BBC0EC2DF0E0FA83E983EE0F67
S11319D0FF1FA981BA81EA0FFB1FEE0FFF1FE60F5D
S11319E0F71F31970AF4AAC0FD01EE0FFF1FEE0F97
S11319F0FF1FEE0FFF1FE40FF51F31970AF49EC07F
S1131A00CB82FD82EC8218015D874C875C0130E05B
S1131A10C901880F991F880F991F280F391F4D017D
S1131A2078876F837A8769871B86F901E61BF70B32
S1131A30FF87EE873A01F8E06F0E711C8B858530C5
S1131A4009F472C0EE85FF85AF81B885EA0FFB1FEC
S1131A50EA58FF4F549069C050FE21C0BB81B13099
S1131A6071F4D501ED91FC910480F581E02D910193
S1131A70488959896F817885C501099537C0D50191
S1131A80ED91FC910684F785E02D710109811A819D
S1131A909801A601642D7E81C501099527C0EC81BA
S1131AA0FD812E163F0611F1FB81F13079F4D50149
S1131AB0ED91FC910480F581E02D2C813D814889D4
S1131AC059896F817885C501099510C0D501ED91BB
S1131AD0FC910684F785E02DEC80FD8009811A8154
S1131AE09801A601642D7E81C50109955694C80C00
S1131AF0D91CE889F9893196F98BE88BE615F70545
S1131B0009F0AACFFB85FF5FFB8789859A85880D3D
S1131B10991D9A878987AF81B8851196B887AF8355
S1131B20F63009F08BCF0AC0512C4984BA85BE83A4
S1131B30EC85FD856F01F98BE88B8ECF61960FB62E
S1131B40F894DEBF0FBECDBFDF91CF911F910F91EF
S1131B50FF90EF90DF90CF90BF90AF909F908F90C9
S1131B607F906F905F904F903F902F900895CF9209
S1131B70EF92FF920F931F93CF93DF936A3079F420
S1131B80FC01448926853785F8E04F9F200D311DDF
S1131B901124FC0137872687158614863CC06D30D6
S1131BA0D1F1262FEC01EA88FB88088919894E8532
S1131BB05F856C857D85CC880E94B80C2C8930E0CB
S1131BC0C901880F991F820F931F880F991F4C8595
S1131BD05D85840F951F9D878C874E894423D9F09A
S1131BE04AEF4203B001439F700D11244885598583
S1131BF0460F571F4817590774F4220F331F220F3B
S1131C00331F220F331F8E859F85280F391F3F876F
S1131C102E871D861C8681E090E0DF91CF911F9175
S1131C200F91FF90EF90CF900895FC017587648722
S1131C30578746870895611101C061E0FC01648BF8
S1131C400895FC01738B628B718B608B0895FC018A
S1131C50668B0895FC0185890895FC018085918532
S1131C600895FC018285938508950F931F93FC01C9
S1131C708589823071F08330E9F0813009F0CAC07F
S1131C8084819581DC01A41BB50BAD014150510940
S1131C9025C184819581DC01A61BB70BBD0186811A
S1131CA09781DC01A41BB50BAD0141505109621BA6
S1131CB0730BB0C086819781DC01A61BB70BBD01F5
S1131CC0621B730B0BC184819581481759070CF073
S1131CD02DC1772324F4260F371F60E070E086813E
S1131CE09781FB01E20FF31F8E179F071CF49C01E1
S1131CF0261B370B121613060CF018C1922F862FD1
S1131D00869586958695B0E88B9F400D511D1124CC
S1131D10FA01E05FFE4F677081F188E0861B682F4F
S1131D2070E0DB01A85FBE4F4C91281708F0DAC0C1
S1131D30621B71092FEF30E002C0359527956A9533
S1131D40E2F742230130110531F048F00230110569
S1131D5009F0ECC009C02081422B408308C04095A3
S1131D6020814223408303C0208142274083981767
S1131D7008F4DCC0981BE058FF4F983060F1023043
S1131D80110559F4DF01292F8C9180958C93A0586B
S1131D90BF4F28502830C0F7B7C021E001301105EB
S1131DA009F020E02195DF01892F2C93A058BF4F23
S1131DB088508830D0F728EF290F26952695269548
S1131DC030E02F5F3F4F3695322F222737952795E6
S1131DD0E20FF31F9770992309F4A8C09770A92FF5
S1131DE0B0E0A050BF4F8C910130110531F048F0A4
S1131DF00230110509F09AC009C09081892B8083B3
S1131E0095C0809590818923808390C09081892793
S1131E1080838CC055230CF489C086819781481730
S1131E2059070CF083C0772324F4260F371F60E092
S1131E3070E084819581FB01E20FF31F8E179F07E9
S1131E401CF49C01261B370B121613060CF06EC0F3
S1131E50CA0155230CF40796959587959595879512
S1131E60959587959695982F882797958795680FC8
S1131E70791F605F7E4F4770552781E090E002C074
S1131E80880F991F4A95E2F7482F0130110549F050
S1131E9090F00230110509F049C0FB01620F731F75
S1131EA016C0FB01620F731F8081842B81936E1710
S1131EB07F07D1F73BC0982F9095FB01620F731FEA
S1131EC0808189238193E617F707D1F72FC080819A
S1131ED084278193E617F707D1F728C055230CF020
S1131EE0F2CE24C00130110509F435CF08F437CF00
S1131EF00230110509F438CF3DCF9770A92FB0E017
S1131F00A050BF4F8C9182CF28EF290F269526959C
S1131F10269530E02F5F3F4F3695322F2227379595
S1131F202795E20FF31F892F877039F71F910F91BF
S1131F3008950F931F93FC018589823071F08330DB
S1131F40E9F0813009F084C084819581DC01A41B0F
S1131F50B50BAD01421B530B24C184819581DC0177
S1131F60A61BB70BBD016150710986819781DC0105
S1131F70A41BB50BAD01421B530B6AC0868197812C
S1131F80DC01A61BB70BBD01615071090AC1868132
S1131F909781681779070CF02CC1552324F4240F7A
S1131FA0351F40E050E084819581FA01E20FF31F70
S1131FB08E179F071CF49C01241B350B1216130665
S1131FC00CF017C1CB0177230CF4079695958795F0
S1131FD095958795959587959695982F88279795A4
S1131FE08795480F591F405F5E4FCB018770992733
S1131FF061E070E002C0660F771F8A95E2F7962FC2
S11320000130110549F090F00230110509F0F1C0DA
S1132010FA01240F351F15C0FA01240F351F8081E2
S1132020892B81932E173F07D1F7E3C06095FA01FE
S1132030240F351F8081862381932E173F07D1F704
S1132040D8C0808189278193E217F307D1F7D1C0E3
S113205077230CF4CEC084819581681779070CF03E
S1132060C8C0552324F4240F351F40E050E0868176
S11320709781FA01E20FF31F8E179F071CF49C014E
S1132080241B350B121613060CF0B3C0922F842FA9
S1132090869586958695B0E88B9F600D711D1124F9
S11320A0FB01E05FFE4F477081F188E0841B682FDD
S11320B070E0DB01A85FBE4F4C91281708F075C093
S11320C0621B71092FEF30E002C0359527956A95A0
S11320D0E2F742230130110531F048F002301105D6
S11320E009F087C009C02081422B408308C0409575
S11320F020814223408303C02081422740839817D4
S113210008F477C0981BE058FF4F983060F1023014
S1132110110559F4DF01292F8C9180958C93A058D7
S1132120BF4F28502830C0F752C021E001301105BC
S113213009F020E02195DF01892F2C93A058BF4F8F
S113214088508830D0F728EF290F269526952695B4
S113215030E02F5F3F4F3695322F22273795279552
S1132160E20FF31F9770992309F443C09770A92FC6
S1132170B0E0A050BF4F8C910130110529F040F020
S113218002301105B1F509C09081892B808331C0DB
S113219080959081892380832CC0908189278083B6
S11321A028C077230CF0F3CE24C00130110509F4C4
S11321B09ACF08F49CCF0230110509F49DCFA2CF29
S11321C09770A92FB0E0A050BF4F8C91E6CF28EFB5
S11321D0290F26952695269530E02F5F3F4F36959B
S11321E0322F222737952795E20FF31F892F877007
S11321F039F71F910F910895CF92DF92EF92FF92DA
S11322000F931F93CF93DF937C01EB018A01690144
S1132210DD230CF4A7C00E942D0EC817D9070CF0BB
S1132220A1C011230CF49EC0C7010E94310E0817EF
S113223019070CF097C0C7010E942A0E823069F07A
S11322408330E1F0813019F5F70184819581801B99
S1132250910B8E01EC0121971AC0F70184819581BD
S11322609C012C1B3D0BE901219786819781FC0180
S1132270E01BF10B8F010150110909C0F7018681A0
S113228097818C1B9D0BE8018C0101501109F1E031
S1132290CF16D10439F030F132E0C316D10409F479
S11322A042C060C0C80111230CF407969595879528
S11322B095958795959587959695982F88279795C1
S11322C08795C80FD91FC05FDE4F0770112781E0C3
S11322D090E002C0880F991F0A95E2F79881892B34
S11322E0888340C0C80111230CF4079695958795FF
S11322F095958795959587959695982F8827979581
S11323008795C80FD91FC05FDE4F0770112781E082
S113231090E002C0880F991F0A95E2F78095988192
S1132320892388831FC0C80111230CF4079695954F
S1132330879595958795959587959695982F882750
S113234097958795C80FD91FC05FDE4F0770112777
S113235081E090E002C0880F991F0A95E2F7988106
S113236089278883DF91CF911F910F91FF90EF9080
S1132370DF90CF900895CF93DF93EC0140E250E0DB
S113238060E870E00E949A0C8FE293E0998388835E
S11323908FEF898F8D8F8B8F8A8FDF91CF910895E7
S11323A0CF93DF931F92CDB7DEB7698321E0AE01EF
S11323B04F5F5F4F60E0FC0187890E94E2170F9036
S11323C0DF91CF9108951F93CF93DF93EC01162FE4
S11323D0688F4F8B60E87AE186E090E00E94A11656
S11323E06EEACE010E94D01165EDCE010E94D0119B
S11323F060E8CE010E94D01168EACE010E94D0119B
S11324006FE1CE010E94D01163EDCE010E94D01184
S113241060E0CE010E94D01160E4CE010E94D01190
S11324206DE8CE010E94D011113069F560E1CE0152
S11324300E94D01160E2CE010E94D01160E0CE0172
S11324400E94D01161EACE010E94D01168ECCE0145
S11324500E94D0116AEDCE010E94D01162E0CE013B
S11324600E94D01161E8CE010E94D0116FE8CE0124
S11324700E94D01169EDCE010E94D01162E2CE011A
S11324800E94D0112CC064E1CE010E94D01160E200
S1132490CE010E94D01160E0CE010E94D01161EA09
S11324A0CE010E94D01168ECCE010E94D0116AEDD9
S11324B0CE010E94D01162E0CE010E94D01161E8E9
S11324C0CE010E94D0116FE8CE010E94D01169EDB7
S11324D0CE010E94D01161EFCE010E94D0116BEDAC
S11324E0CE010E94D01160E4CE010E94D01164EAB2
S11324F0CE010E94D01166EACE010E94D0116FEA8B
S1132500CE010E94D011DF91CF911F9108956623CF
S113251021F067EA0E94D011089566EA0E94D01162
S113252008951F93CF93DF93EC01611105C0888D4B
S1132530813021F01FEC03C010E001C01FE961E805
S1132540CE010E94D011612FCE010E94D011DF91E3
S1132550CF911F910895DF92EF92FF920F931F93F3
S1132560CF93DF938C0161E20E94D01160E0C80137
S11325700E94D0116FE7C8010E94D01162E2C80125
S11325800E94D01160E0C8010E94D01163E0C8012C
S11325900E94D011E8EBF0E0D0808CE08083C0E1B1
S11325A0D1E00F2EF0E1EF2EF3E0FF2EF02D20E12D
S11325B0AE0160E4F80187890E94E2176096CE15A7
S11325C0DF05A9F7D092B800DF91CF911F910F9149
S11325D0FF90EF90DF90089580E092E0E0E1F1E079
S11325E0DF019C011D9221503040E1F708956830CD
S11325F038F42BE230E0FC013183208362830895B8
S113260028EF260F263038F445E250E0FC015183D0
S11326104083228308956E50663030F428E230E01F
S1132620FC013183208362830895DC01ED91FC91E8
S11326301197429121E030E0C90112960C9002C03A
S1132640880F991F0A94E2F7842B80830895DC0194
S1132650ED91FC911197408121E030E012960C90AD
S113266002C0220F331F0A94E2F7242B20830E9416
S113267015130895DC01ED91FC911197408121E03F
S113268030E012960C9002C0220F331F0A94E2F736
S11326902095242320830E9415130895CF93DF935C
S11326A0EC010E941513E881F981208181E090E01A
S11326B00A8002C0880F991F0A94E2F78227808358
S11326C0DF91CF910895FC01A081B1819E9121E019
S11326D030E0A901028002C0440F551F0A94E2F7BA
S11326E0842F809589238C93A081B1818C91028061
S11326F002C0220F331F0A94E2F7209528232C935B
S11327000895FC01A081B1819E9121E030E0A901EE
S1132710028002C0440F551F0A94E2F7842F80956B
S113272089238C93A081B1818C91028002C0220FF5
S1132730331F0A94E2F7282B2C930895DC01ED91C2
S1132740FC9111973297208130E0F90112960C9098
S113275002C0F595E7950A94E2F7CF0181700895D8
S11327600E94F7120895FC0124853585F901E05C87
S1132770FF4F80819181329620813181821B930B9E
S11327808F7399270895FC0184859585FC01E05C8D
S1132790FF4F408151813296208131814217530786
S11327A041F020813181FC01E20FF31F808190E030
S11327B008958FEF9FEF0895FC0184859585FC01B2
S11327C0E05CFF4F40815181329620813181421774
S11327D0530781F020813181DC01A20FB31F8C915A
S11327E0208131812F5F3F4F2F7333273183208323
S11327F090E008958FEF9FEF0895DC011E96ED9110
S1132800FC911F97DF01A05CBF4FEE5BFF4F2D9142
S11328103C9111978081918128173907C1F7089558
S11328200F931F93CF93DF93EC018AA18130B9F109
S11328300E851F85F801E05CFF4F0190F081E02DCB
S11328403196EF73FF27D801AE5BBF4F7E2F9F2FCA
S11328504D915C911197272F392F4E175F07C1F3C4
S1132860F801E05CFF4F80819181F801E80FF91FC6
S11328706083EE85FF85E05CFF4F31832083EE8922
S1132880FF89208181E090E00D8C02C0880F991FA0
S11328900A94E2F7822B808381E090E002C080E01A
S11328A090E0DF91CF911F910F91089508951F92A9
S11328B00F920FB60F9211242F933F934F935F9370
S11328C06F937F938F939F93AF93BF93CF93EF9324
S11328D0FF93C091C6008091C803882399F0CD303E
S11328E059F46DE088EA93E00E9410146AE088EAE3
S11328F093E00E94101408C06C2F88EA93E00E94B1
S1132900101406C0CD3021F481E08093C70307C0C2
S1132910C03229F48091C903811156C032C0CF3727
S113292081F580917704882361F18091CB039091A4
S1132930CC03009731F001979093CC038093CB03A1
S113294043C02091510430915204809153049091DA
S1132950540428173907C1F180915104909152040D
S1132960892B39F48FE390E09093520480935104BF
S11329702BC0E1E5F4E0808191810197918380830C
S113298023C08091510490915204209153043091BA
S1132990540401968F7399272817390761F0A1E52C
S11329A0B4E0ED91FC911197EF5EFB4FC08311965B
S11329B09C938E9309C08091CB039091CC03019694
S11329C09093CC038093CB03FF91EF91CF91BF9170
S11329D0AF919F918F917F916F915F914F913F91B3
S11329E02F910F900FBE0F901F90189588EA93E0D7
S11329F00E94B313892B11F00E94561408951F925C
S1132A000F920FB60F9211242F933F938F939F939E
S1132A10AF93BF93EF93FF9320910D0430910E0475
S1132A2080910F04909110042817390731F4E1ECD8
S1132A30F0E080818F7D808310C0EFE0F4E0A0811E
S1132A40B181A353BC4F2C918081918101968F73E6
S1132A509927918380832093C600FF91EF91BF91C2
S1132A60AF919F918F913F912F910F900FBE0F9037
S1132A701F901895CF93DF93EC01EE85FF85DF015E
S1132A80A05CBF4FEE5BFF4F4D915C91119720818D
S1132A90318142175307C1F7EE89FF89308181E004
S1132AA090E0AC010A8C02C0440F551F0A94E2F76F
S1132AB0242F209523232083EE89FF893081AC01C4
S1132AC00B8C02C0440F551F0A94E2F7242F209563
S1132AD023232083EE89FF893081AC010C8C02C052
S1132AE0440F551F0A94E2F7242F209523232083B3
S1132AF0EE89FF8920810D8C02C0880F991F0A94EA
S1132B00E2F78095822380838C859D85FC01EE5BB2
S1132B10FF4F20813181329731832083DF91CF9120
S1132B200895FC01878D882311F0178E81E00895A4
S1132B3021E0FC0120A30895FC0110A20895FC01EA
S1132B4011A2089521E0FC0121A30895CF93DF93FE
S1132B50EC01E881F9810284F385E02D0995EE8981
S1132B60FF89308181E090E0AC010B8C02C0440FFE
S1132B70551F0A94E2F7242F209523232083EE89FE
S1132B80FF8920810D8C02C0880F991F0A94E2F7F7
S1132B9080958223808381E08AA3DF91CF91089579
S1132BA0FC0112A2A689B7894C9121E030E0C90149
S1132BB0038C02C0880F991F0A94E2F7842B8C932C
S1132BC00895CF92DF92EF92FF92CF93DF93EC01BF
S1132BD06A017B0119A218A20E94D015C11481EECA
S1132BE0D806E104F10409F1EC89FD8981E090E063
S1132BF00E8C02C0880F991F0A94E2F7808360E06C
S1132C0079E08DE390E0A70196010E94412DDA015D
S1132C10C9010197A109B109B695A795979587951B
S1132C209C01211580E13807A8F0EC89FD89108208
S1132C3060E874E88EE190E0A70196010E94412DBE
S1132C40DA01C9010197A109B109B695A79597952C
S1132C5087959C01E889F9893083EA89FB89208377
S1132C60EE89FF89408181E090E09C010A8C02C0DA
S1132C70220F331F0A94E2F7242B2083EE89FF8965
S1132C8040819C010B8C02C0220F331F0A94E2F78F
S1132C90242B2083EE89FF8940819C010C8C02C087
S1132CA0220F331F0A94E2F7242B2083EE89FF8935
S1132CB020810D8C02C0880F991F0A94E2F7809539
S1132CC0822380831F8EDF91CF91FF90EF90DF905E
S1132CD0CF900895E8EAF3E01382128288EE93E03D
S1132CE0A0E0B0E084839583A683B78387E493E070
S1132CF09183808381E194E0958784878DEC93E0D0
S1132D009787868785EC90E0918B808B84EC90E0AC
S1132D10938B828B80EC90E0958B848B81EC90E09C
S1132D20978B868B86EC90E0918F808F84E0828FE6
S1132D3083E0838F87E0848F85E0858F81E0868FB1
S1132D4008959B01AC0160E074E284EF90E00E947E
S1132D50412DDA01C9014097A109B109AC01BD01B6
S1132D6076956795579547954F3F510509F048F477
S1132D701092B9004093B80084E08093BC00CA016B
S1132D80089580E090E008950F931F93CF93DF930D
S1132D9084EA8093BC000E941529609355047093C3
S1132DA056048093570490935804CCEBD0E0888168
S1132DB08823E4F00E9415290091550410915604CB
S1132DC02091570430915804AB01BC01401B510BB6
S1132DD0620B730B8091100390911103A0E0B0E09B
S1132DE084179507A607B70710F709C02091B90003
S1132DF0287F81E090E0283021F080E002C082E06A
S1132E0090E0DF91CF911F910F9108950F931F933D
S1132E10CF93DF9384EA8093BC000E9415296093CA
S1132E205504709356048093570490935804CCEB44
S1132E30D0E088818823E4F00E941529009155048C
S1132E40109156042091570430915804AB01BC01F1
S1132E50401B510B620B730B809110039091110373
S1132E60A0E0B0E084179507A607B70710F709C0DC
S1132E702091B900287F81E090E0203121F080E0AA
S1132E8002C082E090E0DF91CF911F910F910895ED
S1132E900F931F93CF93DF93ABEBB0E0ECEBF0E039
S1132EA08C93908193FDFCCF84E88093BC000E94B6
S1132EB01529609355047093560480935704909396
S1132EC05804CCEBD0E088818823E4F00E941529D3
S1132ED000915504109156042091570430915804E0
S1132EE0AB01BC01401B510B620B730B80911003AF
S1132EF090911103A0E0B0E084179507A607B707E7
S1132F0010F704C08091B900887F01C082E0DF918E
S1132F10CF911F910F910895CF92DF92EF92FF927C
S1132F200F931F93CF93DF938B01882321F084E8C1
S1132F308093BC0003C084EC8093BC000E941529DC
S1132F4060935504709356048093570490935804E7
S1132F50CCEBD0E088818823E4F00E941529C0904E
S1132F605504D0905604E0905704F0905804AB01F7
S1132F70BC014C195D096E097F0980911003909181
S1132F801103A0E0B0E084179507A607B70710F770
S1132F9006C08091BB00F801808381E001C082E01B
S1132FA0DF91CF911F910F91FF90EF90DF90CF9021
S1132FB00895880F81600E9448170895880F0E9421
S1132FC048170895EF92FF920F931F93CF93DF93C7
S1132FD0D82FC62F7A01122F0E94C4168D2F0E945B
S1132FE0DE178C2F0E944817112371F0E70111504E
S1132FF0012F10E00F5F1F4F0E0D1F1D89910E94BE
S11330004817C017D107D1F784E98093BC0081E049
S1133010DF91CF911F910F91FF90EF900895CF9280
S1133020DF92EF92FF920F931F93CF93DF93C82FFA
S1133030D62FD42EF52EE22E0E94C4168C2F0E9479
S1133040DE178D2F0E9448170E9406178C2F0E94AE
S1133050D917EE2009F10D2D1F2DCC24CA94CE0CC6
S1133060D12C8FEFC81AD80AC0E0D0E0F12C81E04F
S1133070E81AF108EC16FD0629F0B80180E00E9478
S11330808C1704C0B80181E00E948C1721960F5F51
S11330901F4FCC15DD0571F784E98093BC0081E0F6
S11330A0DF91CF911F910F91FF90EF90DF90CF9020
S11330B00895CF93C82F0E94C4168C2F0E94DE1748
S11330C094E99093BC0091E0883109F090E0892F55
S11330D0CF910895CF93DF9380917C04811109C02F
S11330E080917A04811105C080917904882309F4C0
S11330F022C18FEB94E00E94EC1240E050E060E0CB
S113310070E08FEB94E00E94150E61E070E08FEBAD
S113311094E00E94210E62E08FEB94E00E941B0E6B
S113312080917A04882309F444C080917B040E942E
S1133130CF2AC82F4AE050E0682F88EA93E00E9423
S1133140792C80917C04811104C0809179048823B6
S113315031F06CE288EA93E00E94702B06C063E5CC
S113316073E088EA93E00E941B2D40E050E060E0A9
S113317070E08FEB94E00E94150E64E48FEB94E012
S11331800E94702B4AE050E060917B048FEB94E046
S11331900E94792C40E150E060E070E08FEB94E015
S11331A00E94150E4AE050E06C2F8FEB94E00E94D1
S11331B0792C80917C04882309F443C080917D0498
S11331C00E94BA29EC014AE050E0BC0188EA93E08D
S11331D00E944B2C80917904882331F06CE288EAB8
S11331E093E00E94702B06C063E573E088EA93E0E5
S11331F00E941B2D40E050E060E370E08FEB94E010
S11332000E94150E61E48FEB94E00E94702B609194
S11332107D0470E06E5071094AE050E08FEB94E059
S11332200E94E92C40E150E064E270E08FEB94E00E
S11332300E94150E4AE050E0BE018FEB94E00E941C
S11332404B2C80917904813029F563B140E150E041
S113325088EA93E00E948B2C40E050E060E670E046
S11332608FEB94E00E94150E66E573E08FEB94E01B
S11332700E941B2D40E150E060E670E08FEB94E08B
S11332800E94150E63B140E150E08FEB94E00E9480
S1133290792C4DC0823029F566B140E150E088EACE
S11332A093E00E948B2C40E050E060E670E08FEBEE
S11332B094E00E94150E69E573E08FEB94E00E94A0
S11332C01B2D40E150E060E670E08FEB94E00E943B
S11332D0150E66B140E150E08FEB94E00E94792C2A
S11332E026C0833021F569B140E150E088EA93E0DB
S11332F00E948B2C40E050E060E670E08FEB94E09D
S11333000E94150E6CE573E08FEB94E00E941B2D78
S113331040E150E060E670E08FEB94E00E94150E0F
S113332069B140E150E08FEB94E00E94792C8FEB7F
S113333094E00E94AB12DF91CF9108951F93CF9335
S1133340DF9300D000D000D0CDB7DEB7182F62E1F4
S1133350CE0101960E94B01363E1CE0104960E944F
S1133360B013112349F0CE0101960E948113CE01BE
S113337004960E94811308C0CE0101960E94631333
S1133380CE0101960E94631326960FB6F894DEBF11
S11333900FBECDBFDF91CF911F9108950E947C296C
S11333A040E051EE60E070E088EA93E00E94E115AD
S11333B063E374E188EA93E00E944D2B81E00E946C
S11333C09E1921E04CE362E08FEB94E00E94E3114C
S11333D061E08FEB94E00E9491128FEB94E00E94E5
S11333E0EC1240E050E060E070E08FEB94E00E946B
S11333F0150E61E070E08FEB94E00E94210E61E015
S11334008FEB94E00E94270E62E08FEB94E00E9421
S11334101B0E6AE274E18FEB94E00E94982B6FE13B
S113342074E18FEB94E00E94982B8FEB94E00E9460
S1133430AB1208951F920F920FB60F9211240F90A2
S11334400FBE0F901F9018951F920F920FB60F92F8
S113345011240F900FBE0F901F9018956FE573E025
S113346088EA93E00E941E2D0895833059F09BEF63
S1133470980F923048F097EF980F81E0933028F03E
S113348080E0089581E0089581E00895A89504B648
S113349003FE03C081E08093590484B7877F84BF0F
S11334A0E0E6F0E080818861808380E8808308958D
S11334B0F894E0E6F0E080818861808388E8808386
S11334C02FEF80E792E0215080409040E1F700C068
S11334D0000008956FE77FE088EA93E00E944D2B97
S11334E066E67FE088EA93E00E944D2B6EE47FE07D
S11334F088EA93E00E944D2B64E37FE088EA93E03E
S11335000E944D2B62E17FE088EA93E00E944D2BFC
S113351061EF7EE088EA93E00E944D2B62EC7EE04E
S113352088EA93E00E944D2B60E77EE088EA93E00E
S11335300E944D2B6FE47EE088EA93E00E944D2BBD
S113354065E07EE088EA93E00E944D2B60EE7DE02A
S113355088EA93E00E944D2B64EA7DE088EA93E0D8
S11335600E944D2B6AE67DE088EA93E00E944D2B91
S113357064E17DE088EA93E00E944D2B67EF7CE0F4
S113358088EA93E00E944D2B6EEC7CE088EA93E09D
S11335900E944D2B66E87CE088EA93E00E944D2B64
S11335A06AE57CE088EA93E00E944D2B64E27CE0CB
S11335B088EA93E00E944D2B6FEA7BE088EA93E06F
S11335C00E944D2B63E47BE088EA93E00E944D2B3C
S11335D065E17BE088EA93E00E944D2B6FED7AE091
S11335E088EA93E00E944D2B65E87AE088EA93E04C
S11335F00E944D2B69E17AE088EA93E00E944D2B0A
S11336006BEE79E088EA93E00E944D2B65EC79E05B
S113361088EA93E00E944D2B68EA79E088EA93E017
S11336200E944D2B69E879E088EA93E00E944D2BD3
S113363061E679E088EA93E00E944D2B68E379E043
S113364088EA93E00E944D2B65E179E088EA93E0F3
S11336500E944D2B61EF78E088EA93E00E944D2BA5
S113366069EC78E088EA93E00E944D2B64EA78E004
S113367088EA93E00E944D2B68E878E088EA93E0BA
S11336800E944D2B67E178E088EA93E00E944D2B7D
S11336906EEE77E088EA93E00E944D2B64E777E0D2
S11336A088EA93E00E944D2B64E577E088EA93E092
S11336B00E944D2B6CE177E088EA93E00E944D2B49
S11336C066EB76E088EA93E00E944D2B69E776E0AA
S11336D088EA93E00E944D2B6AE376E088EA93E05F
S11336E00E944D2B08958FEB94E00E94EC1240E071
S11336F050E060E070E08FEB94E00E94150E61E012
S11337008FEB94E00E941B0E64E276E08FEB94E072
S11337100E94982B62E176E08FEB94E00E94982B54
S11337206CEF75E08FEB94E00E944D2B8FEB94E0EF
S11337300E94AB1208951092790410927A041092A8
S11337407C048FEB94E00E94EC1240E050E060E0D7
S113375070E08FEB94E00E94150E62E08FEB94E032
S11337600E941B0E61E070E08FEB94E00E94210E3A
S113377062EF75E08FEB94E00E94982B69EE75E0A0
S11337808FEB94E00E944D2B8FEB94E00E94AB12E0
S113379067ED75E088EA93E00E94982B0895FC0198
S11337A0403109F048C0208180ED820F8A3020F436
S11337B030E02053310908C08FE9820F863008F0C9
S11337C095C030E02755310981818D3209F491C0CB
S11337D0982F9F7D09F490C0861709F490C090ED4E
S11337E0980F9A3058F422953295307F3227207FF3
S11337F0322790E0C097280F391F10C09FE9980F17
S1133800963008F07FC022953295307F3227207F92
S1133810322790E087559109280F391F82818D3214
S113382009F473C0982F9F7D09F472C0681373C0A4
S1133830822F932F08954A3009F070C0208180EDC3
S1133840820F8A3008F06DC030E020533109818145
S11338508D3209F469C0982F9F7D09F468C06817F8
S113386009F468C090ED980F9A3008F066C0A90179
S1133870440F551F220F331F220F331F220F331FF4
S1133880420F531F282F30E020533109240F351FD6
S113389082818D3209F454C0982F9F7D09F453C05E
S11338A0681709F453C090ED980F9A3008F051C08E
S11338B0A901440F551F220F331F220F331F220F5C
S11338C0331F240F351F90E0C097280F391F8381C1
S11338D08D3229F0982F9F7D11F068133DC02F3F42
S11338E0310509F0E4F5822F932F08958FEF9FEFB0
S11338F00895822F932F0895822F932F0895822F56
S1133900932F08958FEF9FEF0895822F932F08959B
S1133910822F932F08958FEF9FEF08958FEF9FEFDE
S113392008958FEF9FEF0895822F932F0895822F8C
S1133930932F0895822F932F08958FEF9FEF08956B
S1133940822F932F0895822F932F0895822F932FE0
S113395008958FEF9FEF08958FEF9FEF08958FEFF6
S11339609FEF0895EF92FF920F931F93CF93DF93EE
S1133970EC01E62E042FF22E6CE20E94CF1BF11014
S113398003C080935E0405C021E0F2124AC0809314
S11339906904019609F447C0EE2009F446C010E01A
S11339A006C0019609F443C0E11609F442C000318F
S11339B081F488818C3259F0882349F0FE013196D4
S11339C002C0992321F0EF0191919C32D1F7219605
S11339D011C00A3079F488818C3259F0882349F077
S11339E0FE01319602C0992321F0EF0191919C329E
S11339F0D1F721961F5F402F6CE2CE010E94CF1BAE
S1133A00F11006C0E12FF0E0E65AFB4F8483C9CFE2
S1133A1021E0F21210C0E12FF0E0E959FB4F82835C
S1133A20C0CF80E009C080E007C080E005C0812FDE
S1133A3003C08E2D01C080E0DF91CF911F910F91C3
S1133A40FF90EF900895FF920F931F93CF93DF930E
S1133A508C01F62E62E673E00E94DF2D0097B9F028
S1133A60EC01229643E050E065E673E0CE010E944B
S1133A70C22D892B71F043E050E069E673E0CE017A
S1133A800E94C22D892B09F00AC1CAE003C0C0E11B
S1133A9001C0C0E1C0937104F11028C06DE673E069
S1133AA0C80109960E94DF2D009709F4FAC04C2F33
S1133AB06DE202960E94CF1B8F3F2FEF920709F40D
S1133AC0F2C08093670460E773E0C80108960E941F
S1133AD0DF2D009709F4E9C021E04C2F68E002963D
S1133AE00E94B21C8093680481E0ECC081E0F8126B
S1133AF017C06DE673E0C80108960E94DF2D009799
S1133B0009F4D5C04C2F6DE202960E94CF1B8F3F63
S1133B10EFEF9E0709F4CDC08093670481E0D2C023
S1133B20F2E0FF12C8C0E2E7F4E082E081838AE0B9
S1133B30808381E0838312821482065F1F4F63E7D0
S1133B4073E0C8010E94DF2D009719F14C2F6DE23C
S1133B5002960E94CF1B8F3F2FEF920709F4ADC04E
S1133B6025EF280F233050F02EEE280F223030F0AE
S1133B70823020F080937204D1E00CC08AE08093FC
S1133B80720463EB75E088EA93E00E94982B80E06E
S1133B9099C0D0E066E773E0C8010E94DF2D00976A
S1133BA0E9F14C2F6DE202960E94CF1B8F3FEFEF9D
S1133BB09E0709F484C08093730490E0FC0131975C
S1133BC0E730F10510F5EC5CFF4F0C94632D84E0B5
S1133BD080937604D1E022C085E080937604D1E01E
S1133BE01DC081E080937604D1E018C086E0809304
S1133BF07604D1E013C082E080937604D1E00EC055
S1133C0083E080937604D1E009C06EE975E088EA28
S1133C1093E00E94982B80E055C0D1E069E773E0FF
S1133C20C8010E94DF2D0097D9F04C2F6DE2029657
S1133C300E94CF1B8F3FFFEF9F0709F442C08430DF
S1133C4050F0109274046AE875E088EA93E00E94E8
S1133C50982B80E037C0880F880F80937404D1E0DC
S1133C606CE773E0C8010E94DF2D009799F0FC0116
S1133C7082818D3671F08C3621F410927504D1E076
S1133C8009C061E775E088EA93E00E94982B80E020
S1133C9019C0D1E081E0D11115C080E013C080E0EB
S1133CA011C080E00FC080E00DC080E00BC080E058
S1133CB009C080E007C081E005C080E003C080E067
S1133CC001C080E0DF91CF911F910F91FF90089583
S1133CD0FF920F931F93CF93DF938C01F62E62E62E
S1133CE073E00E94DF2D0097B9F0EC01229643E0C7
S1133CF050E065E673E0CE010E94C22D892B71F07D
S1133D0043E050E069E673E0CE010E94C22D892BA6
S1133D1009F0B2C0CAE003C0C0E101C0C0E1C09371
S1133D206604F11050C0085F1F4F6FE773E0C801CD
S1133D300E94DF2D009709F4A1C04C2F6DE202967A
S1133D400E94CF1B8F3F2FEF920709F499C08093F5
S1133D505A0462E873E0C8010E94DF2D009709F459
S1133D6091C04C2F6DE202960E94CF1B8F3F2FEF24
S1133D70920709F489C080935B046DE673E0C8017F
S1133D800E94DF2D009709F481C04C2F6DE202964A
S1133D900E94CF1B8F3F2FEF920709F479C08093C5
S1133DA05C0460E773E0C8010E94DF2D009709F40A
S1133DB071C020E04C2F68E002960E94B21C8093F0
S1133DC05D0481E07AC081E0F8123EC0095F1F4FB4
S1133DD06FE773E0C8010E94DF2D009709F45CC00F
S1133DE04C2F6DE202960E94CF1B8F3F2FEF92075C
S1133DF009F454C080935A0462E873E0C8010E9435
S1133E00DF2D009709F44CC04C2F6DE202960E94FE
S1133E10CF1B8F3F2FEF920709F444C080935B04BC
S1133E206DE673E0C8010E94DF2D0097E9F14C2F85
S1133E306DE202960E94CF1B8F3F2FEF9207B1F1E4
S1133E4080935C0481E039C082E0F81231C06FE7EE
S1133E5073E0C80107960E94DF2D009759F14C2F9B
S1133E606DE202960E94CF1B8F3F2FEF920721F144
S1133E7080935A0481E021C080E01FC080E01DC00F
S1133E8080E01BC080E019C080E017C080E015C04E
S1133E9080E013C080E011C080E00FC080E00DC05E
S1133EA080E00BC080E009C080E007C080E005C06E
S1133EB080E003C080E001C080E0DF91CF911F91DA
S1133EC00F91FF9008959C0125503109223031054E
S1133ED008F45AC0AC014950510942305105D0F49C
S1133EE069C085E006C02230310548F482E001C093
S1133EF081E095B5987F892B85BD81E0089592E096
S1133F0001C091E0E1E8F0E08081887F892B808323
S1133F1081E00895877F039779F560347105D9F0BE
S1133F2054F46830710599F06032710591F0613094
S1133F30710521F518C0611581E0780781F06115DC
S1133F4084E0780771F060387105C1F406C092E02E
S1133F500BC093E009C094E007C095E005C096E06B
S1133F6003C097E001C091E0E1EBF0E08081887F3D
S1133F70892B808381E0089580E0089580E008958E
S1133F8080E0089580E008956034710551F14CF4A7
S1133F906130710509F4ACCF6830710509F4A3CF21
S1133FA0EFCF611581E07807F1F06115744009F4F1
S1133FB098CFE6CF6034710591F04CF4613071050F
S1133FC009F49FCF6830710509F48DCFDBCF6115FB
S1133FD081E0780761F06115744039F0D3CF93E044
S1133FE091CF83E086CF84E084CF95E08BCF94E0BB
S1133FF089CF8FEB94E00E94BB110895AF92BF92DA
S1134000DF92EF92FF920F931F93CF93DF937C0184
S1134010D62ED42F442391F08C01C0E088EA93E09B
S11340200E94B31318161906B4F4CD1309C014C0B2
S1134030F50110828C2F15C0CF5FF0CF80E011C046
S1134040580188EA93E00E94DC13F80181938F0100
S11340508D11F2CFEDCFDC2FF701ED0FF11D1082A2
S113406080E0DF91CF911F910F91FF90EF90DF904F
S1134070BF90AF900895CF92DF92EF92FF920F938B
S11340801F93CF93DF93CDB7DEB72A970FB6F8947B
S1134090DEBF0FBECDBF88EA93E00E94911588234E
S11340A011F40C945D2888EA93E00E94B313892BE1
S11340B011F40C945D2840E46DE08FE794E00E94D5
S11340C0FE1F80937E0480917804882321F08FE77B
S11340D094E00E94B82D10917E04112309F4EDC7D9
S11340E043E050E06CE075E18FE794E00E94AA2D74
S11340F0892B09F097C08091830480538A3038F06B
S113410067E174E188EA93E00E94982BD6C747E000
S113411050E063E874E0CE0101960E94D02DCE01F8
S113412001960E94832D182F843138F06FE074E1DA
S113413088EA93E00E94982BC0C7682FCE010896A6
S11341400E94B0138FEB94E00E94EC1240E050E028
S113415060E070E08FEB94E00E94150E62E08FEB5C
S113416094E00E941B0E69E074E18FEB94E00E94DE
S11341704D2B4AE050E0612F8FEB94E00E948B2C92
S113418064E074E18FEB94E00E944D2B80918204F3
S1134190893651F118F4883631F031C08C3671F01B
S11341A08037B9F02CC0CE0108960E9427136FEF18
S11341B073E18FEB94E00E944D2B2DC0CE01089645
S11341C00E943A136BEF73E18FEB94E00E944D2B46
S11341D022C0CE0108960E94811366EF73E18FEB33
S11341E094E00E944D2B17C0CE0108960E946313E1
S11341F060EF73E18FEB94E00E944D2B0CC069EEED
S113420073E18FEB94E00E944D2B62EE73E188EA38
S113421093E00E94982B8FEB94E00E94AB120E94D3
S11342202E1A4BC743E050E063EF74E18FE794E04C
S11342300E94AA2D892B09F06AC0809182048053C0
S11342408A3038F06AED73E188EA93E00E94982B93
S113425034C747E050E062E874E0CE0101960E9462
S1134260D02DCE0101960E94832D182F843138F071
S113427062ED73E188EA93E00E94982B1EC7682FD1
S1134280CE0108960E94B013CE0108960E944E13E8
S11342908FEB94E00E94EC1240E050E060E070E0AC
S11342A08FEB94E00E94150E62E08FEB94E00E9485
S11342B01B0E6CEC73E18FEB94E00E944D2B4AE0F3
S11342C050E0612F8FEB94E00E948B2C63EC73E140
S11342D08FEB94E00E944D2B812F0E94CF2A4AE05D
S11342E050E0BC018FEB94E00E94E92C8FEB94E04A
S11342F00E94AB12812F0E94CF2A4AE050E0BC01F9
S113430088EA93E00E94FC2C0E942E1AD6C643E051
S113431050E068E075E18FE794E00E94AA2D892BB4
S113432009F06FC08091820480538A3038F06BEBBF
S113433073E188EA93E00E94982BBFC647E050E0FF
S113434062E874E0CE0101960E94D02DCE01019660
S11343500E94832D182F843138F063EB73E188EACF
S113436093E00E94982BA9C6682FCE0108960E945C
S1134370B0138FEB94E00E94EC1240E050E060E058
S113438070E08FEB94E00E94150E62E08FEB94E0F6
S11343900E941B0E6DEA73E18FEB94E00E944D2B9B
S11343A04AE050E0612F8FEB94E00E948B2C66EA88
S11343B073E18FEB94E00E944D2BCE0108960E948E
S11343C09E13882361F061EA73E18FEB94E00E940D
S11343D04D2B61E388EA93E00E94AC2B0BC06DE99E
S11343E073E18FEB94E00E944D2B60E388EA93E045
S11343F00E94AC2B8FEB94E00E94AB120E942E1A09
S11344005CC644E050E06EEF74E18FE794E00E94F4
S1134410AA2D892B09F05AC08091830480538A30D5
S113442038F065E973E188EA93E00E94982B45C669
S113443047E050E063E874E0CE0101960E94D02D7D
S1134440CE0101960E94832D182F883038F06DE834
S113445073E188EA93E00E94982B2FC68FEB94E0D7
S11344600E94EC1240E050E060E070E08FEB94E0DA
S11344700E94150E62E08FEB94E00E941B0E65E82B
S113448073E18FEB94E00E944D2B4AE050E0612FE2
S11344908FEB94E00E948B2C8EE0810F0E94BA294E
S11344A07C014AE050E0BC018FEB94E00E944B2C6D
S11344B04AE050E0B70188EA93E00E945C2C8FEB5D
S11344C094E00E94AB120E942E1AF7C544E050E01B
S11344D06BE474E18FE794E00E94AA2D892B09F024
S11344E064C08091830480538A3038F06DE773E1AF
S11344F088EA93E00E94982BE0C542E050E063E82C
S113450074E0CE0101960E94D02DCE0101960E9446
S1134510832DF82E0E94351A811107C065E773E1D7
S113452088EA93E00E94982BC8C5412F50E046507A
S1134530510965E874E0CE0101960E94D02DCE01A8
S113454001960E94832D6C01BC0177278F2D0E9458
S1134550DC298FEB94E00E94EC1240E050E060E034
S113456070E08FEB94E00E94150E62E08FEB94E014
S11345700E941B0E60E773E18FEB94E00E944D2BC9
S11345804AE050E06F2D8FEB94E00E948B2C4AE0C0
S113459050E06C2D8FEB94E00E94792C8FEB94E02B
S11345A00E94AB120E942E1A88C544E050E066E4D3
S11345B074E18FE794E00E94AA2D892B09F06DC065
S11345C08091830480538A3038F068E673E188EA86
S11345D093E00E94982B71C542E050E063E874E0D8
S11345E0CE0101960E94D02DCE0101960E94832D0A
S11345F0F82E0E94351A811107C060E673E188EA3B
S113460093E00E94982B59C5412F50E04650510920
S113461065E874E0CE0101960E94D02DCE0101968A
S11346200E94832D6C01BC018F2D90E00E94631FBA
S1134630811107C068E573E188EA93E00E94982B32
S11346403CC58FEB94E00E94EC1240E050E060E047
S113465070E08FEB94E00E94150E62E08FEB94E023
S11346600E941B0E62E573E18FEB94E00E944D2BD8
S11346704AE050E06F2D8FEB94E00E948B2C4AE0CF
S113468050E0B6018FEB94E00E944B2C8FEB94E04A
S11346900E94AB120E942E1A10C544E050E063E061
S11346A075E18FE794E00E94AA2D892B09F055C08B
S11346B080918404882339F06AE473E188EA93E002
S11346C00E94982BFAC48FEB94E00E94EC1240E015
S11346D050E060E070E08FEB94E00E94150E62E021
S11346E08FEB94E00E941B0E6FE373E18FEB94E079
S11346F00E944D2B809183048637C1F0883761F086
S11347008936F1F483E00E94B72966E373E18FEB05
S113471094E00E944D2B1AC083E00E94B7296DE2F9
S113472073E18FEB94E00E944D2B10C081E00E9456
S1134730B72969E273E18FEB94E00E944D2B06C028
S113474061E273E188EA93E00E94982B8FEB94E096
S11347500E94AB120E942E1AB0C445E050E067EFED
S113476074E18FE794E00E94AA2D892B09F087C099
S113477080918504843699F118F4813641F076C02D
S1134780803709F453C0833709F46DC06FC080913A
S1134790860480538A3038F069E173E188EA93E053
S11347A00E94982B8AC447E050E066E874E0CE018A
S11347B001960E94D02DCE0101960E94832D88304F
S11347C038F061E173E188EA93E00E94982B75C4A4
S11347D0825F80937D0481E080937C044DC080914E
S11347E0860480538A3038F069E073E188EA93E004
S11347F00E94982B62C447E050E066E874E0CE0162
S113480001960E94D02DCE0101960E94832D843101
S113481038F061E073E188EA93E00E94982B4DC47C
S113482080937B0481E080937A0426C0809186047F
S1134830823621F481E0809379041EC0833621F40A
S113484082E08093790418C0843621F483E0809355
S1134850790412C01092790469EF72E188EA93E056
S11348600E94982B09C00E949B1B06C061EF72E155
S113487088EA93E00E94982B0E942E1A1EC46AE1D3
S113488075E18FE794E00E94A12D892B19F50E9410
S11348902E1A8FEB94E00E94EC1240E050E060E0AE
S11348A070E08FEB94E00E94150E62E08FEB94E0D1
S11348B00E941B0E6BEE72E18FEB94E00E944D2B75
S11348C060E08FEB94E00E9491128FEB94E00E94E1
S11348D0AB12F3C365E175E18FE794E00E94A12D6B
S11348E0892B19F50E942E1A8FEB94E00E94EC128A
S11348F040E050E060E070E08FEB94E00E94150E21
S113490062E08FEB94E00E941B0E6EED72E18FEB80
S113491094E00E944D2B61E08FEB94E00E94911291
S11349208FEB94E00E94AB12C8C360E175E18FE79E
S113493094E00E94A12D892B29F40E942E1A0E9432
S1134940731BBBC36FEE74E18FE794E00E94A12D4B
S1134950892B69F488EA93E00E94981565E873E06E
S113496088EA93E00E941E2D0E942E1AA6C365EECB
S113497074E18FE794E00E94A12D892B69F488EA01
S113498093E00E949C1562E973E088EA93E00E9438
S11349901E2D0E942E1A91C345E050E06EED74E185
S11349A08FE794E00E94AA2D892BC9F48091840496
S11349B0853629F488EA93E00E94A6150DC0843652
S11349C029F488EA93E00E94D01506C060EA73E0F7
S11349D088EA93E00E941E2D0E942E1A6EC369ED90
S11349E074E18FE794E00E94A12D892B39F40E9491
S11349F02E1A88EA93E00E943A155FC343E050E020
S1134A0064ED74E18FE794E00E94AA2D892B29F5C7
S1134A1080918204823759F488EA93E00E94A215B7
S1134A2068EC72E188EA93E00E94982B13C08B36FD
S1134A3059F488EA93E00E949F1562EB72E188EAD8
S1134A4093E00E94982B06C060EA73E088EA93E042
S1134A500E941E2D0E942E1A30C343E050E06BECDE
S1134A6074E18FE794E00E94AA2D892B09F050C1CC
S1134A7048E050E06BEC74E18FE794E00E94AA2DCB
S1134A80892B09F049C060E08FE794E00E94681E1A
S1134A90811107C06AEA72E188EA93E00E94982BC8
S1134AA00CC3EAE5F4E093818281981739F06AE750
S1134AB072E188EA93E00E94982BFFC280915A0425
S1134AC00E945918811107C068E572E188EA93E0F1
S1134AD00E94982BF2C2EAE5F4E023814EE554E00B
S1134AE0618180810E94E217182F882309F40DC187
S1134AF06FE472E188EA93E00E944D2B4AE050E0B3
S1134B00612F88EA93E00E948B2C65E372E188EAC6
S1134B1093E00E94982BF9C047E050E063EC74E105
S1134B208FE794E00E94AA2D892B09F07BC061E0F5
S1134B308FE794E00E94681E811107C06DE272E164
S1134B4088EA93E00E94982BB8C280915C0481505B
S1134B50883038F06BEF71E188EA93E00E94982B7B
S1134B60ACC280915A040E945918811107C069EDA2
S1134B7071E188EA93E00E94982B9FC2EAE5F4E091
S1134B8022814EE554E0618180810E940F18182F24
S1134B90882309F440C060ED71E188EA93E00E9443
S1134BA04D2B4AE050E0612F88EA93E00E948B2C61
S1134BB063EC71E188EA93E00E944D2B10E00F2E24
S1134BC0FAE5CF2EF4E0DF2EF02DF60182811817DE
S1134BD008F09BC0E12EF12C448550E0F701E65A21
S1134BE0FB4F648188EA93E00E94792CF60182816C
S1134BF090E00197E816F90634F46CE288EA93E051
S1134C000E94702B06C063E573E088EA93E00E947B
S1134C101B2D1F5FDACF6BEB71E188EA93E00E94F2
S1134C20982B4BC247E050E06BEB74E18FE794E0C4
S1134C300E94AA2D892B11F562E08FE794E00E946F
S1134C40681E811107C063EB71E188EA93E00E945A
S1134C50982B33C280915A040E945918882339F042
S1134C606AE971E188EA93E00E94982B4EC06CE7F0
S1134C7071E188EA93E00E94982B47C047E050E036
S1134C8063EB74E18FE794E00E94AA2D892BB9F5B8
S1134C9068E671E188EA93E00E94982B68E571E187
S1134CA088EA93E00E944D2B11E0F12C812F0E94A1
S1134CB05918882369F040E150E0612F88EA93E0B5
S1134CC00E94792C60E288EA93E00E94702BF394AE
S1134CD01F5F103859F767E471E188EA93E00E9496
S1134CE0982B4AE050E06F2D88EA93E00E94792CDB
S1134CF067E371E188EA93E00E94982B06C060EABA
S1134D0073E088EA93E00E941E2D0E942E1AD5C1FA
S1134D1044E050E06CEA74E18FE794E00E94AA2D2D
S1134D20892B61F56CEA74E18FE794E00E94A12D70
S1134D30892B49F4109278046EE171E188EA93E0DA
S1134D400E94982B18C065EA74E18FE794E00E94F2
S1134D50A12D892B51F481E08093780464E071E102
S1134D6088EA93E00E94982B06C06CEF70E188EA11
S1134D7093E00E94982B0E942E1A9FC147E050E0B6
S1134D806CE974E18FE794E00E94AA2D892B61F508
S1134D906CE974E18FE794E00E94A12D892B51F412
S1134DA081E08093770460EE70E188EA93E00E94EA
S1134DB0982B17C063E974E18FE794E00E94A12D5A
S1134DC0892B49F41092770463EC70E188EA93E04C
S1134DD00E94982B06C06BEB70E188EA93E00E9476
S1134DE0982B0E942E1A69C144E050E06EE574E1EC
S1134DF08FE794E00E94AA2D892B09F037C16EE554
S1134E0074E18FE794E00E94A12D892B49F40E945C
S1134E1083286FEA70E188EA93E00E94982B23C10B
S1134E2066E574E18FE794E00E94A12D892B49F493
S1134E300E94A22862EA70E188EA93E00E94982B1B
S1134E4012C14AE050E068E874E18FE794E00E9400
S1134E50AA2D892BE9F462E08FE794E00E94231DD8
S1134E60882379F002E714E0F80183810E94A628E0
S1134E70F80184810E94B528F80182810E94B0283B
S1134E80F2C06AE970E188EA93E00E94982B15C1A8
S1134E9049E050E06EE774E18FE794E00E94AA2DA8
S1134EA0892B09F049C00E94C428811107C062E817
S1134EB070E188EA93E00E94982BFFC060E08FE7DE
S1134EC094E00E94231D882381F1E7E6F4E08081C9
S1134ED09181891739F062E570E188EA93E00E94D4
S1134EE0982BEBC08150883038F06DE170E188EA8E
S1134EF093E00E94982BE1C080E0A7E6B4E09C9187
S1134F00891760F4E82FF0E0E959FB4F92819EBDC8
S1134F100DB407FEFDCF9EB58F5FF1CF63E170E165
S1134F2088EA93E00E94982B9EC06BE070E188EAC7
S1134F3093E00E94982BC1C048E050E065E674E11C
S1134F408FE794E00E94AA2D892B09F060C00E948B
S1134F50C428811107C063EF7FE088EA93E00E94D0
S1134F60982BABC061E08FE794E00E94231D882357
S1134F7009F446C0809167048150883038F06EEBA4
S1134F807FE088EA93E00E94982B97C061EB7FE072
S1134F9088EA93E00E944D2B10E00F2EF7E6EF2EE7
S1134FA0F4E0FF2EF02D0FEFF7018081181708F0C1
S1134FB05AC0C12ED12C0EBD0DB407FEFDCF6EB567
S1134FC0F601E959FB4F6283F701428550E088EA14
S1134FD093E00E94792CF701808190E00197C81634
S1134FE0D90634F46CE288EA93E00E94702B06C080
S1134FF063E573E088EA93E00E941B2D1F5FD4CF22
S113500069EA7FE088EA93E00E94982B56C066E73D
S113501074E18FE794E00E94A12D892B59F46091EB
S11350207204CE0108960E94B013CE0108960E9425
S1135030271319C06EE674E18FE794E00E94A12D56
S1135040892B59F460917204CE0108960E94B01322
S1135050CE0108960E943A1306C061EA7FE088EA0E
S113506093E00E94982B0E942E1A27C060E574E1F9
S11350708FE794E00E94A12D892B29F40E942E1A17
S11350800E94581A1AC080917F04833019F40E9438
S11350909B1B13C06AEE74E18FE794E00E94A12D7C
S11350A0892B29F40E946A1A0E942E1A06C068E904
S11350B07FE088EA93E00E94982B2A960FB6F89432
S11350C0DEBF0FBECDBFDF91CF911F910F91FF9037
S11350D0EF90DF90CF9008950E94461A0E94CE1957
S11350E060ED77E080E090E00E9423290E94731B2A
S11350F0C6EFD4E10E943B200E946A182097D1F3A6
S11351000E94F614F7CF61E08DE00E943C2A61E032
S11351108BE00E943C2A61E08AE00E943C2A60E025
S11351208DE00E947B2A60E08BE00E947B2A61E094
S11351308AE00E947B2A8CB580618CBD8CB580642A
S11351408CBD08958CB58F7B8CBD0895811104C0EE
S11351508CB580628CBD08958CB58F7D8CBD08950F
S11351609CB5937F892B8CBD08959CB59C7F282F7B
S11351702370922B9CBD2DB582FB992790F9822F29
S11351808E7F892B8DBD08950CB406FE04C08CB5AA
S113519082958170089580E008951F920F920FB652
S11351A00F9211242F933F938F939F93AF93BF93A9
S11351B08091EE049091EF04A091F004B091F10479
S11351C03091F2040196A11DB11D232F2D5F2D37BF
S11351D020F02D570196A11DB11D2093F204809358
S11351E0EE049093EF04A093F004B093F104809143
S11351F0EA049091EB04A091EC04B091ED040196C3
S1135200A11DB11D8093EA049093EB04A093EC04D8
S1135210B093ED04BF91AF919F918F913F912F91E6
S11352200F900FBE0F901F9018958FB7F894209190
S1135230EE043091EF044091F0045091F1048FBFDB
S1135240B901CA0108959B01AC017FB7F89480911C
S1135250EA049091EB04A091EC04B091ED0466B5DE
S1135260A89B05C06F3F19F00196A11DB11D7FBF1A
S1135270BA2FA92F982F8827860F911DA11DB11D24
S113528062E0880F991FAA1FBB1F6A95D1F7BC0162
S11352902DC0FFB7F8948091EA049091EB04A0919B
S11352A0EC04B091ED04E6B5A89B05C0EF3F19F0FE
S11352B00196A11DB11DFFBFBA2FA92F982F8827D2
S11352C08E0F911DA11DB11DE2E0880F991FAA1F29
S11352D0BB1FEA95D1F7861B970B885E9340C8F2F3
S11352E0215030404040504068517C4F21153105D9
S11352F04105510571F60895789484B5826084BDA2
S113530084B5816084BD85B5826085BD85B58160C5
S113531085BDEEE6F0E0808181608083E1E8F0E025
S11353201082808182608083808181608083E0E854
S1135330F0E0808181608083E1EBF0E08081846033
S11353408083E0EBF0E0808181608083EAE7F0E035
S11353508081846080838081826080838081816099
S113536080838081806880831092C1000895809337
S113537012030895982F8E3008F09E5097708091F4
S113538012038295880F880F807C892B80937C0080
S113539080917A00806480937A0080917A0086FDFF
S11353A0FCCF2091780040917900942F80E030E088
S11353B0282B392BC90108951F93CF93DF93182FFE
S11353C0EB0161E00E943C2A209709F44AC0CF3FD8
S11353D0D10509F449C0E12FF0E0EA59FA4E84916D
S11353E08330C1F0843028F4813051F08230B1F53B
S11353F00CC0863019F1873049F1843079F514C036
S113540084B5806884BDC7BD33C084B5806284BD63
S1135410C8BD2EC080918000806880938000D093A6
S11354208900C093880024C08091800080628093AA
S11354308000D0938B00C0938A001AC08091B00082
S113544080688093B000C093B30012C08091B00014
S113545080628093B000C093B4000AC0C038D10504
S11354601CF4812F60E002C0812F61E00E947B2A3E
S1135470DF91CF911F910895CF93DF93482F50E090
S1135480CA018E5A9A4EFC013491425C5A4EFA017A
S11354908491882369F190E0880F991FFC01E05EF4
S11354A0FA4EA591B491FC01E65DFA4EC591D491F2
S11354B0662351F42FB7F8948C91932F90958923F8
S11354C08C93888189230BC0623061F42FB7F894E0
S11354D08C91932F909589238C938881832B888337
S11354E02FBF06C09FB7F8948C91832B8C939FBFDA
S11354F0DF91CF910895482F50E0CA018A599A4EFE
S1135500FC012491CA018E5A9A4EFC019491425C8A
S11355105A4EFA013491332309F440C0222351F145
S1135520233071F0243028F42130A1F0223011F519
S113553014C02630B1F02730C1F02430D9F404C0AF
S1135540809180008F7703C0809180008F7D80934D
S1135550800010C084B58F7702C084B58F7D84BD70
S113556009C08091B0008F7703C08091B0008F7D17
S11355708093B000E32FF0E0EE0FFF1FE65DFA4EDC
S1135580A591B4912FB7F894662321F48C9190954A
S1135590892302C08C91892B8C932FBF0895682F87
S11355A070E0CB018A599A4EFC012491CB018E5AAA
S11355B09A4EFC014491625C7A4EFB0194919923CA
S11355C019F420E030E03CC0222351F1233071F083
S11355D0243028F42130A1F0223011F514C02630F3
S11355E0B1F02730C1F02430D9F404C08091800098
S11355F08F7703C0809180008F7D8093800010C0DE
S113560084B58F7702C084B58F7D84BD09C0809135
S1135610B0008F7703C08091B0008F7D8093B0007D
S1135620892F90E0880F991F8C5C9A4EFC01A591FC
S1135630B4918C9120E030E0842311F021E030E03B
S1135640C90108950895CF92DF92EF92FF920F93CC
S11356501F93CF93DF937C016B018A01C0E0D0E0FC
S11356600FC0D6016D916D01D701ED91FC910190B0
S1135670F081E02DC7010995C80FD91F01501040D2
S11356800115110571F7CE01DF91CF911F910F9193
S1135690FF90EF90DF90CF900895EF92FF920F93D9
S11356A01F93CF93DF937C018B01C0E0D0E0F8011E
S11356B00F5F1F4F6491662359F0D701ED91FC9160
S11356C00190F081E02DC7010995C80FD91FEFCFD4
S11356D0CE01DF91CF911F910F91FF90EF9008952C
S11356E0DC01ED91FC910190F081E02D0995089584
S11356F0EF92FF920F931F938C01DC01ED91FC91CB
S11357000190F081E02D6DE009957C01D801ED91C7
S1135710FC910190F081E02DC8016AE009959C019B
S11357202E0D3F1DC9011F910F91FF90EF90089519
S1135730EF92FF920F931F937C010E944D2B8C01DB
S1135740C7010E94782B9C01200F311FC9011F91B2
S11357500F91FF90EF900895EF92FF920F931F9394
S11357607C01DC01ED91FC910190F081E02D099523
S11357708C01C7010E94782B080F191FC8011F91C3
S11357800F91FF90EF900895CF93DF93DB010D907D
S11357900020E9F71197A61BB70BEC01E881F9810A
S11357A00280F381E02DAD010995DF91CF91089539
S11357B04F925F927F928F929F92AF92BF92CF92BD
S11357C0DF92EF92FF920F931F93DF93CF93CDB7A6
S11357D0DEB7A1970FB6F894DEBF0FBECDBF2C0184
S11357E0742ECB01223008F42AE019A231E2C32E30
S11357F0D12CCC0EDD1E822E9924AA24BB24672D25
S1135800752FA50194010E94412D79018A01C801D7
S1135810B701A50194010E94312D472D461B089420
S1135820C108D1084A3014F4405D01C0495CF60156
S11358304083E114F1040105110521F07E2C5F2D54
S1135840C801DDCFC201B6010E94C42BA1960FB6D8
S1135850F894DEBF0FBECDBFCF91DF911F910F91A2
S1135860FF90EF90DF90CF90BF90AF909F908F907C
S11358707F905F904F900895DC012115310541F42C
S1135880ED91FC910190F081E02D642F099508952C
S11358900E94D82B0895EF92FF920F931F939A01C1
S11358A07B0100E010E0B801A7010E943C2C1F918D
S11358B00F91FF90EF900895CF92DF92EF92FF92B5
S11358C00F931F936C017B019A0100E010E0B80173
S11358D0A7010E943C2C8C01C6010E94782B080F62
S11358E0191FC8011F910F91FF90EF90DF90CF9087
S11358F00895EF92FF920F931F939A01E62EFF24CF
S113590000E010E0B801A7010E943C2C1F910F9108
S1135910FF90EF900895CF92DF92EF92FF920F9352
S11359201F936C01E62E9A01FF2400E010E0B801F9
S1135930A7010E943C2C8C01C6010E94782B080F01
S1135940191FC8011F910F91FF90EF90DF90CF9026
S11359500895CF92DF92EF92FF920F931F93CF930C
S1135960DF93EC016A017B012115310541F4E881E3
S1135970F9810190F081E02D642F09951FC02A3030
S11359803105D1F477FF17C0E881F9810190F081E6
S1135990E02D6DE209958C0144275527BA014C1975
S11359A05D096E097F09CE012AE00E94D82B980177
S11359B0280F391F04C02AE00E94D82B9C01C9017A
S11359C0DF91CF911F910F91FF90EF90DF90CF90D7
S11359D00895EF92FF920F931F937B019A01002782
S11359E0F7FC0095102FB801A7010E94A92C1F9164
S11359F00F91FF90EF900895CF92DF92EF92FF9274
S1135A000F931F936C017B019A010027F7FC00950B
S1135A10102FB801A7010E94A92C8C01C6010E9475
S1135A20782B080F191FC8011F910F91FF90EF9059
S1135A30DF90CF9008950E94C42B0895EF92FF92B7
S1135A400F931F937C010E94C42B8C01C7010E94F9
S1135A50782B080F191FC8011F910F91FF90EF9029
S1135A600895DB018F939F930E94692DBF91AF919D
S1135A70A29F800D911DA39F900DB29F900D1124A4
S1135A800895A1E21A2EAA1BBB1BFD010DC0AA1F7B
S1135A90BB1FEE1FFF1FA217B307E407F50720F093
S1135AA0A21BB30BE40BF50B661F771F881F991F0E
S1135AB01A9469F760957095809590959B01AC0157
S1135AC0BD01CF010895EE0FFF1F0590F491E02D65
S1135AD009940E94742DA59F900DB49F900DA49FCE
S1135AE0800D911D11240895A29FB001B39FC001A0
S1135AF0A39F700D811D1124911DB29F700D811DF6
S1135B001124911D0895FC0188279927E894219177
S1135B102032E9F3293010F02E30C8F32B3241F053
S1135B202D3239F4689404C00E94F92D820F911D1E
S1135B30219120532A30C0F31EF4909581959F4FF4
S1135B400895FB01DC018D91059080190110D9F3B2
S1135B50990B0895FB01DC014150504030F08D91C8
S1135B600590801919F40020B9F7881B990B089542
S1135B70DC016C9161546A3108F060526F596D9385
S1135B80C1F70895FB01DC014150504030F08D9184
S1135B900190801919F40020B9F7881B990B089516
S1135BA0FB01DC014150504048F001900D9200206F
S1135BB0C9F701C01D9241505040E0F70895FB0120
S1135BC051915523A9F0BF01DC014D9145174111B5
S1135BD0E1F759F4CD010190002049F04D914015B1
S1135BE04111C9F3FB014111EFCF81E090E001972E
S1135BF008957AE0979F902D879F802D910D112411
S1095C000895F894FFCFA3
S1135C06000103070F1F3F7F0080C0E0F0F8FCFE91
S1135C16000000000000000000000000000000007A
S1135C26000000000000000000000000000000006A
S1135C36000000000000000000000000000000005A
S1135C4600000000000000000000000000000080CA
S1135C56808000000000000000000000000000003A
S1135C66008080C0C00000000000000000000000AA
S1135C76000000000000000000000000000000001A
S1135C86000000000000000000000000000000000A
S1135C9600000000000000000000000000000000FA
S1135CA60000000080C0E0F0F8FCF8E0000000000E
S1135CB6000000000000000000000000008080805A
S1135CC6808000808000000000808080808000FF4B
S1135CD6FFFF0000000080808080000080800000BC
